:020000040000FA
:1000000090280020C100000041B400003D7F0000A6
:10001000FFFFFFFFFFFFFFFFFFFFFFFFFFFFFFFFF0
:10002000FFFFFFFFFFFFFFFFFFFFFFFFD5DC00002B
:10003000FFFFFFFFFFFFFFFF59BD0000F9E50000D4
:1000400035010000C1C1000035010000350100008C
:100050003501000035010000D16F000035010000BE
:10006000713F0000FFFFFFFF35010000757A0000BF
:10007000ED7900003501000035010000FFFFFFFFB2
:10008000FFFFFFFF350100003501000035010000D2
:100090003501000035010000350100003501000088
:1000A0003501000035010000350100003501000078
:1000B00035010000350100003501000085B4000065
:1000C0002048804720488047204800472048016951
:1000D000002908D14169002905D18169002902D18F
:1000E000C169002909D01B48C1680901090D00290F
:1000F0000ED005290CD006290AD0BFF34F8F164821
:100100001649016016491548C860BFF34F8FFEE7D6
:10011000114801681148884200D0704711481249BF
:1001200001600D48114901607047FEE7FEE7FEE7F8
:10013000FEE7FEE7FEE700000D480E490C4A0E4BB5
:1001400070470000CD0000000DE600007D010000BA
:100150000003084080010840000000200400FA0568
:1001600000ED00E0008108400100000000000000F8
:10017000901C002090280020901C002000F002F825
:1001800000F0B1F80CA030C8083824182D18A24689
:10019000671EAB4654465D46AC4201D100F0A3F861
:1001A0007E460F3E0FCCB6460126334200D0FB1AE6
:1001B000A246AB4633431847E8F5010008F60100B4
:1001C0000023002400250026103A01D378C1FBD873
:1001D000520700D330C100D50B60704710B56E29AF
:1001E00002D101F03BFD10BD702902D102F089F867
:1001F00010BD662902D119F055F810BD652902D14C
:1002000019F050F810BD672902D119F04BF810BD54
:10021000612902D1C046C04610BD03681B0A01D344
:1002200080231943692902D100F0DEF810BD64294A
:1002300002D100F0D9F810BD752902D100F0D4F830
:1002400010BD6F2902D102F007F810BD782902D144
:1002500002F044F810BDE92902D101F0A3FF10BD5E
:10026000E42902D101F09EFF10BDF52902D101F071
:1002700099FF10BDEF2902D101F0FAFF10BDF82956
:1002800002D102F039F810BD0368DB0901D38023E5
:100290001943632902D102F002FA10BD732902D179
:1002A00002F005FA10BDE32902D102F00FFA10BDE9
:1002B000F32902D102F012FA10BD002010BD1FB5C3
:1002C00000F0B0F902F052F904000020002118F00B
:1002D000B5FD401C60600020002118F099FDE06031
:1002E0001FBD10B510BD02F069FE1146FFF7E7FF14
:1002F00014F0F0FB03F020F903B4FFF7F2FF03BCA6
:1003000003F06AF930B40C490C684A682368106835
:10031000C0181060241D121D8C4207D28A4208D2D8
:100320000C604A6030BC4000400870470C00DC3C68
:10033000F6E70A00DC3AF3E7281C002070B5054612
:100340000C46164602E00FCC0FC5103E102EFAD216
:10035000082E02D303CC03C5083E042E07D301CCDC
:1003600001C5361F03E021782970641C6D1C761EC0
:10037000F9D270BD7CB51D4616460C00009001D028
:100380000019401E084B7B442A46694601903046BE
:1003900001F089FE002C054603D06946002001F0DB
:1003A00095FE28467CBD00004D1D00000FB47CB5B5
:1003B0000C0009AA009001D00019401E094B7B4493
:1003C00069460190089801F06EFE002C054603D0A6
:1003D0006946002001F07AFE28467CBC08BC04B0C7
:1003E00018470000151D0000F7B500257529106895
:1003F000009914A611D001F09EFB002802DA4042B9
:1004000011A608E0009909688A0701D50FA602E045
:10041000490704D50EA6012501E001F095FB009FD8
:100420000024243704E002F007F830313955641C09
:100430000028F8D12B4632462146009801F0B6FB41
:10044000FEBD0000000000002D0000002B00000099
:1004500020000000F3B50446002081B02062204651
:10046000E1688847002872D0252802D06268A16818
:10047000ABE0594F00267F442046E168884720289A
:10048000054608DB312D06D278192038007800287F
:1004900001D00643F0E7B00701D5042086430020D1
:1004A000E0610746A0612A2D0AD028460FF0FEFD24
:1004B000002827D0B8000019303D0090856119E070
:1004C0000298BA00121902C8916102902046E168B0
:1004D0008847012F054617D1E06900281FDA202040
:1004E00086431CE000980A2180694843009940191E
:1004F000303888612046E168884705460FF0D6FD10
:100500000028EFD1012F0AD02E2D08D12046E16816
:1005100088470546202006437F1C022FC3DBA069C5
:10052000002803DA4042A06101200643F00701D011
:10053000102086436C2D0BD0682D09D04C2D3CD05B
:100540006A2D38D0742D38D07A2D36D016E040E0A0
:10055000E1682F4620468847B842054609D16C2FEE
:1005600029D001208002E1680643204688470546DD
:1005700004E06C2F1DD0FF2001300643002D28D051
:1005800028464138192803D80120C00206432035E7
:10059000204626602946029A1646FFF71FFE0028CD
:1005A00010D001280BD0F61DF008C00008300290D2
:1005B00055E74020E1E78020D5E70020D3E7361D4E
:1005C00002964CE762682846A1689047206A401C62
:1005D00044E7206AFEBD00004A98010070B5064657
:1005E00001F066FA0468054630460A22002101F04F
:1005F000EBFE2C6070BD00000B4A30B511460B4C71
:1006000060310B46DC3B0CC1372106E0020C8D004B
:1006100012185A51064A504300190A46491E002A28
:10062000F4DC30BD0120E7E7C81B0020E119D666E5
:10063000CD0D010010B5431E5C785B1C002CFBD176
:1006400005E00C78491C1C705B1C002C03D0521E6A
:10065000F7D20021197010BD30B505460B462A4669
:100660001C781078521C5B1C002801D0A042F7D0E7
:10067000002C03D0002802D06D1CEFE7284630BDC7
:10068000034610B50B439B070FD1042A0DD308C8AE
:1006900010C9121FA342F8D018BA21BA884201D952
:1006A000012010BD0020C04310BD002A03D0D30795
:1006B00003D0521C07E0002010BD03780C78401CCA
:1006C000491C1B1B07D103780C78401C491C1B1BC1
:1006D00001D1921EF1D1184610BDF7B505460E4660
:1006E0000020044600E0641C02998C420BD2285D75
:1006F00001F0EDF90746305D01F0E9F9381A02D151
:10070000295D0029EFD1FEBD30B5441C03E001781E
:10071000401C00290DD08107F9D10B4BDD0104C825
:10072000D11A91432940FAD0001B0A0603D0C01EFB
:1007300030BD001B30BD0A0401D0801E30BD09024F
:10074000FCD0401E30BD0000010101010346F0B5A0
:100750000B439B072DD1244DEF01042A29D308C850
:1007600010C95E1B9E43121F3E4017D0D8B2E1B2A3
:10077000401A3106014310D198B2A1B2401A310497
:1007800001430AD118022102000A090A401A310263
:10079000014302D1180E210E401AF0BDA342DCD055
:1007A00018BA21BA884201D90120F0BD0020C04307
:1007B000F0BD002A01D10020F0BD03780C78401C68
:1007C000491C002B0DD0A3420BD1521E09D0037837
:1007D0000C78401C491C002B03D0A34201D1521EAF
:1007E000EBD1181BF0BD000001010101F8B5042A8E
:1007F0002CD3830712D00B78491C0370401C521E67
:1008000083070BD00B78491C0370401C521E8307D2
:1008100004D00B78491C0370401C521E8B079B0FA1
:1008200005D0C91ADF002023DE1B08C90AE0FFF744
:1008300085FDF8BD1D4608C9FD401C46B4402C434B
:1008400010C0121F042AF5D2F308C91A521EF0D4A0
:100850000B78491C0370401C521EEAD40B78491CCB
:100860000370401C012AE4D409780170F8BD431AD2
:1008700070B593421BD28918801804E0491E401EAF
:100880000B78521E03709307F8D106E01039103828
:1008900078C9103978C01038103A102AF6D203E01F
:1008A000091F001F0B680360121FF9D570BDFFF709
:1008B00045FD70BDF8B5064614460843800707D0CD
:1008C000751AA54219D20819102D13D2311907E053
:1008D0003046FFF7CCFFF8BD401E491E02780A7073
:1008E000641EF9D2F8BD471B2A463946FFF77EFF42
:1008F000641B3846A542F6D3011B22463046FFF75B
:1009000075FFF8BDD2B210B513029A1813049A18E5
:1009100000F00EF810BD01E004C0091F0429FBD24D
:100920008B0701D50280801CC90700D00270704778
:1009300000290BD0C30702D00270401C491E0229B7
:1009400004D3830702D50280801C891EE3E70022BE
:10095000EEE70022DFE70000F8B507460B46394610
:100960001943890713D1164CE601042A0FD302CB91
:100970000D1B8D43354202D102C0121FF5E7CBB2E9
:100980000370401C521E002B13D0090AF7E7002AFF
:1009900014D01978521E5B1C0170401C002908D02D
:1009A000002A0BD01978521E5B1C0170401C0029D4
:1009B000EDD1002A02D01146FFF7C9FF3846F8BD35
:1009C0000101010182078B079A4237D170B5920F5E
:1009D0000AD0032402780B78401C491C002A2BD033
:1009E0009A4229D12042F5D11D4EF40104C808C90C
:1009F000951B9543254010D19A4207D104C808C9D8
:100A0000951B9543254008D19A42EFD012BA1BBAE4
:100A100001209A4200D2404270BD12BA1BBA2DBAD0
:100A200018241000E0401900E140401A05D12E00C2
:100A3000E64002D1083CF4D1D01A70BD02780B78A0
:100A4000401C491C002A09D09A4207D102780B7831
:100A5000401C491C002A01D09A42EFD0D01A70479E
:100A600001010101002203098B4273D3030A8B4267
:100A700058D3030B8B423CD3030C8B4221D312E09F
:100A800003460B437FD4002243088B4274D30309EF
:100A90008B425FD3030A8B4244D3030B8B4228D390
:100AA000030C8B420DD3FF22090212BA030C8B42B6
:100AB00002D31212090265D0030B8B4219D300E056
:100AC000090AC30B8B4201D3CB03C01A5241830BDB
:100AD0008B4201D38B03C01A5241430B8B4201D38B
:100AE0004B03C01A5241030B8B4201D30B03C01AB4
:100AF0005241C30A8B4201D3CB02C01A5241830A2E
:100B00008B4201D38B02C01A5241430A8B4201D35C
:100B10004B02C01A5241030A8B4201D30B02C01A86
:100B20005241CDD2C3098B4201D3CB01C01A5241ED
:100B300083098B4201D38B01C01A524143098B4276
:100B400001D34B01C01A524103098B4201D30B015F
:100B5000C01A5241C3088B4201D3CB00C01A524184
:100B600083088B4201D38B00C01A524143088B4249
:100B700001D34B00C01A5241411A00D201465241E2
:100B8000104670475DE0CA0F00D04942031000D301
:100B90004042534000229C4603098B422DD3030A56
:100BA0008B4212D3FC22890112BA030A8B420CD366
:100BB000890192118B4208D3890192118B4204D38F
:100BC00089013AD0921100E08909C3098B4201D30F
:100BD000CB01C01A524183098B4201D38B01C01A49
:100BE000524143098B4201D34B01C01A52410309C0
:100BF0008B4201D30B01C01A5241C3088B4201D36F
:100C0000CB00C01A524183088B4201D38B00C01A1B
:100C10005241D9D243088B4201D34B00C01A5241F2
:100C2000411A00D20146634652415B10104601D37F
:100C30004042002B00D54942704763465B1000D309
:100C4000404201B50020C046C04602BD7047704713
:100C5000704700000246C80FC00781434B0030B503
:100C60004B405B009B0D20D01923DB06C9180123E4
:100C70001B05994220DB0324A40704251346AB403F
:100C80000BD3002B04D1EB0613409B00E34204D4AA
:100C900001246407002312195941FF231B059942BF
:100CA0000BD2C9000143500F09E0CB0204D5014328
:100CB0000803024305D0054830BDFF21C90508439C
:100CC00030BD084607210905884330BD0000C07FBC
:100CD000F0B50C46871A9C410D46861A9D4103D2F9
:100CE000C01BA141D21963410D0D1F0DC94EEC1B54
:100CF000AE435CD07F057F0D0026002F51D02D051F
:100D0000AC46A943DD020123ED0A1B051D43202348
:100D10001B1B24D41746E740381871412F46E74083
:100D2000CC199D402818314661410C0D27D16144F2
:100D30009A4013D50023401C594152000ED140085F
:100D4000400001224B005205D34207D30520400743
:100D5000C14201D5B04900E0B0493046F0BD6B005A
:100D6000002A00D001229A181F23203C1B1B01D50A
:100D7000002302E0E540281871410C0DD7D0012472
:100D800024050919C407CD0740084908E40F284382
:100D90006144002CD5D00024401C61419A40D0D140
:100DA000CDE76A05520DD9D1C90FC907D5E79C4DCA
:100DB0004E00002801D0012400E0002434195F0017
:100DC000002A01D0012600E00026BE19954FAC4252
:100DD0000CD8AE420AD8B44206D001256D05EC42CB
:100DE000BCD010461946F0BD9942FCD000203946CF
:100DF000F0BDF0B51FB40C460F46811A9F41254641
:100E0000861A9D4106D20125ED076F40401ABC416C
:100E100052187B41210D1E0D8D1BAC467D4D8D431F
:100E20007ED075056D0D7CD00D05AE46AC431B0321
:100E30001B0B794D52429D41202366469B1B14D3C8
:100E40001746F740381800260090744160462F4638
:100E50000741E41900989D402818664116D4714650
:100E600071189A4025D5012320E093182A466A413B
:100E70005200002B00D0521C1E23203E9B1B002B37
:100E800061DD3541EE1728186641E8D50018764136
:100E90005B1C9A4000D3401C4B05F3181524E3401B
:100EA00010D3002B52D071467118D30FC01802D343
:100EB000491C05B0F0BD0123DB079A42F9D1400877
:100EC0004000F6E701225205B21801D1002853D0A4
:100ED0000123CC0ADB029943891E002A08D1020CA7
:100EE00003D0020C0004103902E002460020203931
:100EF0000023550B05D112020823550B01D15201D5
:100F00000D23550C01D112011B1DD50C01D19200EE
:100F10009B1C150D01D152005B1C2025EE1A01E02F
:100F20002CE022E00546F54015439840CA1AE10737
:100F300069181305C918002ABBDA032040070818EE
:100F4000C10FC9070FE071466118B2E7F107400809
:100F50000843711071444A000CD001235B059A428A
:100F6000A7D2C90FC9070020A3E74905490D26D11B
:100F7000002001E00028F4D100219AE7284D660006
:100F8000002801D0012100E0002171185F00002A33
:100F900001D0012600E00026BE19224FA94210D838
:100FA000AE420ED8B14208D001256D05E94206D007
:100FB0001946A802414010467BE79C4201D02146D9
:100FC00077E70020394674E710B50C465C4005D53C
:100FD0000124E4076340FFF70CFF10BDFFF778FE24
:100FE00010BD30B40C465C4004D50124E4076340D6
:100FF00030BC6DE630BCFCE670B50124E40761400E
:101000000D465D4002D4FFF763FE70BD6340FFF7FD
:10101000F0FE70BDFF0700000000F0FF0000F07F51
:101020000000E0FF0000F87FF0B5F94D0C091E0943
:101030002C402E402F468BB0A7437DD0B543FCD02B
:10104000002E7AD0002CFCD00D465D40ED0F2543DC
:10105000AC1BFF25AD0464190894C502440DC902F8
:101060002143500DDC0204430120C0070143044327
:10107000D2020191200C110C00958C4601042346EC
:101080008B430A9161460904E24D8A430991010AA2
:101090007D4449198039097805464D4301266D186C
:1010A000F605751B6943C90C640B891C4C43641815
:1010B000B5012C1B250C2E04B4434C434D43210C8D
:1010C000691889090591009DE90701D00121C90727
:1010D00004912C4601996708CD072F434C08059DC4
:1010E000E10B4D432D0C29466646754302950D468E
:1010F00045432E46029D7D1BB44100950D465D4340
:1011000001942C0C2F040D465543AE462D0C3D4347
:10111000029503947546049C2D04641B049406D226
:10112000029C039D641C002675410395029401AC4A
:1011300070CC009F7D1B01E03EE162E1B4410904F7
:101140000095079101940599A4086143090C0C4688
:101150004443650BE7040C4666467443A646640B9D
:101160003C43039502947446049DE4042C1B0494B0
:1011700006D2029C039D641C0026754103950294CF
:1011800001AC70CC009F7D1BB44101940C465C43C4
:101190000095650FE7000C465443A646640F3C4398
:1011A000039502947446049DE4002C1B049406D21B
:1011B000029C039D641C002675410395029401ACBA
:1011C00070CC009F7D1BB441AE09AF06049DC900E1
:1011D000AD092F43049DA406AD060495079D344335
:1011E00069180791059DE10B4D432D0C2946664674
:1011F000754302950D4645432E46029D7D1BB44125
:1012000000950D465D4301942C0C2F040D4655436B
:10121000AE462D0C3D43029503947546049C2D0467
:10122000641B049406D2029C039D641C0026754135
:101230000395029401AC70CC009F7D1BB4410194D6
:101240008C050694079C890A611800950791019CFA
:101250000599A4086143090C0D464543680BEF044A
:101260000D46644665436C0B3C43049FED047D1BB7
:10127000AC4602D20025641C6841009E019D371BCC
:1012800085410846584301950C46460FC500544316
:10129000600F28436546E4002C1B02D20025401C49
:1012A0006E41019D3F1AB5412846BD09800628437D
:1012B0008446A009BF064E020699A4067618074385
:1012C000079D002068410A99079019430020099B57
:1012D00000906046FF1913434041E20F64003A4317
:1012E000A4460446D71A8C41A04203D9012000909D
:1012F00020463A46C70F941840416246D20F224317
:10130000644664000494009CBE466400D71AA44658
:10131000044602978C417746002F01D1A04204D9A0
:101320006046401C8446029A2046C40FA646941884
:101330004041049A0546D20F224364466400D31A02
:101340008D417146002901D1A84202D928461A468A
:10135000641C10430122002800D0164361020020C3
:10136000079B891904465C410223002C02DB4918C3
:1013700013466441089DCE0A2D145D194B0567057F
:10138000E10A2C050D1908993E43C9076940002B55
:1013900008D0934006D30022761C5141002B01D186
:1013A000760876001C4A002D43DB154241D0AA4343
:1013B0003FD030460BB0F0BD06180D464D41174CDE
:1013C0007642AC411AD395181C465C41134A6D42D3
:1013D000A24113D3012252054C00D4420AD15C0031
:1013E000D4420BD04B4002D592021143E2E74900B0
:1013F0004908DFE75940C90FC90718E0002008492C
:10140000D8E7054801420DD10342F7D0F2E70000CA
:101410000000FF07418C01000000F07F0000E0FFAA
:101420000000F87F114859400143C012414000209C
:10143000C0E70123089A9B069A4205DC0322520763
:101440008918C90FC907B5E7052252078918074A45
:101450001143D2125140ADE770B515461C46024605
:101460000B4628462146FFF7DFFD70BDFFFFFF7FDB
:1014700030B50346CA02400D1043164D164C0A15EE
:1014800002D02043002A06DBAA1A002A12DDD0402F
:10149000FF2A0BDC30BD5205520D01D1400040083F
:1014A000AA1A07D4D0404042FF2A01DD002030BDF7
:1014B0000028FCDD4A00002B01D0012000E00020C4
:1014C000101801225205D042F0D8C817C04360401E
:1014D00030BD00001E040000000000801F22030C2D
:1014E00002D10F22000402D0030E03D004E000203A
:1014F000014670470002083A030F01D10001121F94
:10150000830F01D18000921E002801DB4000521E93
:10151000120551184205C012411810467047C10FFC
:10152000C90700D04042012292071143D6E70121AA
:101530008907D3E7F0B58B4C0F09254689B0BD4329
:101540007BD01D092646AE43FAD00E465E402740AA
:10155000F60F3E43254071D024012142FBD0FF24E9
:10156000AD19A4042D1B039501252D05DB02DB0A13
:10157000C9022B43C90A29431E010901040F130F95
:10158000050121431701880B820391432D098C46E5
:10159000A90B1E438A039543B30B9A0396433F0955
:1015A000BA0B9403A74302962E467E430497B64691
:1015B0004E19D7190C460196544305977E43371BA5
:1015C0007646BF1B3601B646BE0B361900967646E8
:1015D000BC043719009C01D3641C00946400002FE4
:1015E00001D001263443029E049F754366467E4324
:1015F0000496760034196E0034190094029C019E02
:101600001C196643751BAE46069465464519059C34
:1016100005956C43594375460891691A0191049EDA
:1016200001465143A41B0491611A009C0791E106F5
:1016300005D061090122114302E072E06EE0610908
:10164000089D00272C0A2D066918049D7C412A0A52
:101650002D066918019D6241AC0DAD026D18544113
:10166000079A910D920255196141029A64465843B6
:101670005443069B059A5A43121A131B9A0E9B0158
:101680005B187A41010B0005C3185141220A20065C
:1016900044195A419A4200D2491C01204002814219
:1016A00003D315230226F64302E014230326F64350
:1016B0002020C51AA9401746AF40DA400A43204609
:1016C0000399D8400914731819055118039A38431F
:1016D000D2075140AC4009D00122944006D30022E9
:1016E000401C5141002C01D1400840001E4A934249
:1016F00012D3012203989206904207DB052040078F
:1017000009181A480143C012414004E00320400771
:101710000818C10FC907002009B0F0BD0020F1076B
:10172000FAE705180C464C4111486D42A04115D30B
:1017300094181A465A410E48644290410ED3012033
:101740004A004005824209D35A00824206D35940DA
:10175000C90F084AC90700201143DDE700200649E8
:10176000DAE700000000FF07FE070000FFFFFF7F31
:101770000000E0FF0000F07F0000F87F70B5054634
:101780004800440D124B0020002C0AD0634008D0C2
:101790009A4206DA6642B24203DD1205401951410F
:1017A00070BD002C08D0002B09D0C90FC907002A32
:1017B000F6DB084A114370BDC90FC90770BD284642
:1017C0000A03104302D00020034970BD284670BDB3
:1017D000FF0700000000F07F0000F87F0121C9052D
:1017E0000123411842001B06D3185B0E0AD0C1101A
:1017F0000722D206891840075242D14201D5520031
:1018000089187047090208D50146002A03D0C10F84
:10181000C9070020704710467047420202D00020DE
:1018200002497047072109050143F4E70000F87FEA
:10183000F0B5FF252D04C609C209FF2704462E4036
:101840000137CB093E4348402A402B400746002A37
:101850006BD0002B69D0AA4267D0AB4265D000287C
:1018600000DA32460125ED0529432C430902200206
:10187000090AD21A4B0C7F24E31A434C000A7C4419
:10188000E35C7D242404121914145B00A21888421E
:1018900001D3521C00E0400049420C465C43241135
:1018A0005C43DB016415E318040A5C43C502200DA8
:1018B0000C4644436419250A5D432303EC0C0D4692
:1018C000654300030019EB184C42A34201D35B1897
:1018D000401CD4052018002B07D05B00C91804D386
:1018E000401C002901D1400840003F2189048A4260
:1018F00009D3002A08DC1106090F04D00321490787
:101900004018C00FC007F0BD01224100120689181F
:101910007F2252069142F6D205214907C84201D5DD
:101920009010F0BDFF20C005F0BD002F00DA324658
:101930001648AA4207D2AB4205D21902090E17D0A7
:10194000F80FC007F0BDFF2563002D06AB42F9D8A4
:101950004900A942F6D8AB4201D1A942F2D0A9422E
:1019600001D1002101E061004908D0050843F0BD24
:101970001102090EFBD0FF200243D005F0BD0A463C
:101980000146104654E70000D38401000000C07FE8
:1019900010B501469E240002CA15A307002A02D0F2
:1019A0001843002A04DBA21A002A0CDDD04010BD27
:1019B0001206120E01D140004008A21A03D4D040F2
:1019C00040420028F3DDFF2248001206904201D970
:1019D000002010BDC817C043584010BD0102C215F9
:1019E00004D00123DB071943002A0ADB9E239A1A3D
:1019F00002D40846D0407047FF22410012069142AF
:101A000001D900207047C017C04370471F22030C44
:101A100002D10F2200041CD0030E01D10002083AAB
:101A2000030F01D10001121F830F01D18000921E0C
:101A3000002801DB4000521ED20551180212511835
:101A40001922904004D3491C002801D149084900BB
:101A500008467047C10FC90700D0404201229207D3
:101A60001143D3E701218907D0E7000010B5FF2219
:101A7000C30D134009D05A4007D0914205DA5C42A9
:101A8000A14202DDC905081810BDC40FE407002BF0
:101A900006D0002A06D0002902DBFF20C00504433F
:101AA000204610BD4102FCD0004810BD0000C07FA0
:101AB00000487047301C002010B5FFF7F9FF0068A0
:101AC00010BD10B50446FFF7F3FF046010BD10B55C
:101AD000044600F043FD0068005DC00602D52046C4
:101AE000203010BD204610BD70B5044685690068E1
:101AF000C10601D5302600E02026C00707D070BD02
:101B000062683046A1689047206A401C20626D1EC2
:101B1000F6D570BD70B5044685690078C00707D159
:101B200070BD6268A16820209047206A401C206236
:101B30006D1EF6D570BD09684A0501D540B27047E3
:101B4000C905FCD500B2704709684A0501D5C0B285
:101B50007047C905FCD580B2704770B50C46054684
:101B6000012A05D02878800600D5EA69002302E022
:101B7000012305E05B1C934202D2E05C0028F9D10E
:101B8000A869E618C01AA861286AC0182862284601
:101B9000FFF7AAFF04E06A682078A968641C9047F0
:101BA000B442F8D32846FFF7B5FF70BDFFB5044631
:101BB0000D4681B0243000902168880604D510229B
:101BC000E0699143216000E00120A84201DD471B4C
:101BD00000E000270498A1697A191018081AA0617A
:101BE0002078C00602D42046FFF77EFF002608E0DA
:101BF00003986268A168805D9047206A401C761C4B
:101C0000206204988642F3DB2078C0060AD520467D
:101C1000FFF76AFF06E06268A16830209047206AFB
:101C2000401C206238467F1E0028F4DC07E0009844
:101C30006268A168405D9047206A401C2062284687
:101C40006D1E0028F3DC2046FFF764FF20780006B5
:101C500002D5022005B0F0BD0120FBE71168026843
:101C6000006A530501D5087009E0D30501D5088045
:101C700005E0130602D5C21705C100E00860012087
:101C8000704700007047FFB50C461E468FB003CA70
:101C9000089009914F007D0D00D16D1E002108466E
:101CA0000020C0460321099A89050840002A03DA6A
:101CB0008200801840080840800D01280A9002DD4B
:101CC0000020C0430A90089807430DD0F048F1491E
:101CD000281848430714189800281DD07542291E5B
:101CE0001DDD0A9842421BE01898012802D000200E
:101CF000302104E00020F24305E02154401CB042B2
:101D0000FBDB30460022189B002121540F998B6089
:101D10000A60486013B0F0BDBD1B6D1CDFE70A9A76
:101D2000002900DA69420BA800F052FD0BAB07CB8B
:101D300003AB07C30899099800F0B6FD6B4607C3CB
:101D40000146D5480918002D00910BDDD2490398B2
:101D50000A9A49424018002303A90390684601F0FB
:101D600013F808E003990A9A0023081803A90390BE
:101D7000684600F0B3FF6B4607C30004000C03D0B5
:101D80000020C043410800E01046189A002A03D002
:101D90000022009215461EE0751E05D400F0EAFBF5
:101DA000303262556D1EF9D501220843079602D0E4
:101DB00000227F1C04E02078302801D100227F1E01
:101DC000002A069787D01EE0112D07DA00F0D2FB1B
:101DD000303262556D1C02460A43F5D1084303D0E8
:101DE0000098002819D00EE00021681E05E0235C51
:101DF000625C63542254401E491C8142F7DBA81BDD
:101E0000401E07950690079A18990020A0540F9835
:101E1000079B069A81600CC07CE711260020189071
:101E200059E7D21DF0B50D460446D10893B0C9005C
:101E300003C90C900D910EF02DF802460D98C00FBD
:101E400001D02D2007E02068810701D52B2002E07A
:101E50004007C00F4001032A0F9001D0072A05DB7D
:101E600003462946204600F0CBFB0EE12078800691
:101E700001D5E76900E006272846652D04D06628CD
:101E800014D0672D69D12DE00020112F009001DBC7
:101E9000112300E07B1C0CAA03A910A8FFF7F3FE96
:101EA0001199002610987D1C0E9142E001203B46BE
:101EB0000CAAC0070B900120009003A910A8FFF7FF
:101EC000E2FE119D12981099002600280E9501D16E
:101ED000781C0D18781B02D446427D1C761EE81B28
:101EE00000903AE0012F00DA01270020112F009026
:101EF00001DD112300E03B460CAA03A910A8FFF75F
:101F0000C2FE11993D46109800260E9121780907CE
:101F10000BD40E99A94200DA0D4603A9012D04DD68
:101F20004A19203AD27F302A06D0B84201DA011D80
:101F300004DA012100910FE06D1EEFE7002802DCBA
:101F400086192D1A03E0411CA94200DD0D46801BB5
:101F5000401C00900120C0070B902078000705D49A
:101F60000098A84202DB0020C04300906946002090
:101F7000C8720B98012102AF0337C907884225D0E8
:101F8000022010902B2011900B9800280BDA404271
:101F90000B902D20119006E00B9800F04DFA303197
:101FA0007F1E0B9039701099481E00291090F3DCA9
:101FB0000B980028F0D111987F1E387020880005FA
:101FC00001D5452000E065207F1E387001A8C01BA8
:101FD000C01D0B900F98002800D0012041190098D7
:101FE000C01709180B980818A169081A401EA061AB
:101FF0002078C00602D42046FFF776FD0F9800280F
:1020000005D06268A1689047206A401C2062207851
:10201000C00625D52046FFF767FD21E0002E07DB2F
:102020000E98B04204DD03A86268805DA16802E0FA
:102030006268A16830209047206A761C401C2062AC
:102040000098401E002800900AD100F08FFAC06866
:1020500062680168405CA1689047206A401C206269
:1020600028466D1E0028D9DC07E062683878A16830
:102070007F1C9047206A401C20620B99481E002953
:102080000B90F2DC2046FFF745FD032042E60000FE
:1020900001FCFFFF104D0000E1DFFFFF01694A1C5A
:1020A00002610878704700B58FB002910021059158
:1020B0000549019379440391114604906846FEF75F
:1020C000C9F90FB000BD0000E5FFFFFF0A681070FE
:1020D000521C0A6070470CC908399A4202D2531C3C
:1020E0000B60107070470000F7B50446154686B0C7
:1020F0002B487844002703C83E460090019111E028
:1021000007986A467100415A02A800F08DFE411CF2
:1021100007D02178890603D5E269391891420ED893
:102120003F18761C2078800602D5E069B84206DDAB
:10213000AE42E5DB07987100405A0028E0D1A06963
:10214000C01BA0612046FFF7CFFC154878445A38E1
:1021500003C800900020019116E041006A460798EC
:10216000415A02A800F060FE0590401C0AD00025EC
:1021700005E0626802A8A168405D90476D1C059863
:102180008542F6D30498401CB0420490E5DB206AF7
:10219000C01920622046FFF7BDFC09B0F0BD000069
:1021A0002A7D0100F7B5D21D0025D20815A6D20060
:1021B000F52905CA11D0002A05DA002140429141D3
:1021C00011A60A4608E0009909688B0701D50FA6F9
:1021D00002E0490701D50EA601251146009F002403
:1021E000243704E000F0C6F930323A55641C024648
:1021F0000A43F7D12B46324621460098FFF7D6FC1A
:10220000FEBD0000000000002D0000002B000000BB
:102210002000000070B504460021243408E0550772
:10222000D2086D0F303565545D072A43DB08491C21
:1022300015461D43F3D10468002310A2250708D5D5
:10224000A40601D4002904D0C46901230CA2641E91
:10225000C461FFF7ABFC70BD10B5044621461068A1
:10226000FFF772FC002302462046FFF7D3FF10BDA4
:10227000D21DD108C9000CC9CCE700000000000045
:1022800030000000F8B50F460188090502D5224C40
:102290007C4402E0204C7C440E3405460021243569
:1022A00008E016071209360FA65D6E541E0732436A
:1022B0001B09491C16461E43F3D12246047800230D
:1022C000240705D5702F06D0002901D00223113232
:1022D000FFF76CFCF8BD01231032F9E770B5044636
:1022E0000D4621461068FFF72FFC002302462946C1
:1022F0002046FFF7C7FF70BDD21DD308DB000CCB13
:10230000C0E730B403682024126823430360082325
:10231000C36130BC0023B5E7947B01000FB40023F8
:1023200000B589B00CA900910B99CB60224B7B447E
:10233000224A7A440792042206930192204A02928A
:10234000204A7A446B4608920246002016F0B2FFFB
:1023500009B008BC04B0184770B5064615460C46CF
:10236000324686B00020C04301900020049004A8AB
:10237000009102916946FFF7D1FF024604982118A7
:10238000002D05D0002801D0084600E02046286036
:10239000049800280DD0002A02DD0098884208D059
:1023A0003246081B6946019004A800940294FFF786
:1023B000B5FF06B070BD0000B3030000CF030000FE
:1023C000FFFFFF7FA9020000F7B50F460026009C23
:1023D0002578641C002D05D000F0C0F80068405D31
:1023E000C007F5D12B2D02D02D2D18D0641E3946F3
:1023F000029A204600F098F9002F04D03968A142D3
:1024000001D1009939607105022400290BDA40429C
:10241000002803DDFFF74CFB0460A007FEBD012090
:1024200080020643E3E70028F8DAFFF741FB046087
:102430000048FEBDFFFFFF7F01468008081A020921
:102440001018020A1018020C1018C0088200121886
:102450005200891A01E0401C0A390A29FBD2704750
:10246000F8B5224C4E00069DA6420AD8A64201D1DC
:10247000002806D15E00A64203D8A6420AD1002A4F
:1024800008D00D24240425422CD02946002000F039
:10249000EBFCF8BD0C461C430CD4994202D0EFF380
:1024A0000080F8BD904202D0EFF30080F8BDEFF35A
:1024B0000080F8BD09242407E5008B4206D0EFF325
:1024C0000080A043591A06D2284304E0101A05D30D
:1024D000EFF30080A04380F30088F8BDEFF30080A5
:1024E000A043F1E7009500F0D7FCF8BD0000E0FF45
:1024F00010B5FF231B0644009C421DD84C009C4293
:102500001AD80346124A0B4307D4401A02D3EFF3FA
:10251000008010BDEFF3008010BD081A06D2EFF363
:10252000008001219043C907084302E0EFF30080D7
:10253000904380F3008810BD0D231B041A4204D081
:102540001146002000F090FC10BD00F02FFD10BDE2
:102550000000009000487047301C002010B500F0CB
:1025600005F8001D10BD00BFD56801000048704788
:10257000501C00200B4670B50246890780080843AE
:1025800019469D08141AA941250908070543080999
:102590002C194841250A01060D43010A2C19414115
:1025A000200C0D0428430D0C00194D410021401949
:1025B0004D41C00869070843E908840F8D00254391
:1025C000840024184D4124196D41121BAB4107E0D2
:1025D0000925ED432C11521963410024401C61412F
:1025E0001C460A250026551BB441F1D270BD10B51A
:1025F0000446FFF7B3FF0068005DC007C00F10BDC1
:10260000F8B51F46044601230068DB020326014695
:102610001840072A05DB002801D017A506E017A5FA
:1026200004E0002801D016A500E016A51020814383
:102630002160A069C01E002FA06101D0401EA061D2
:102640002046FFF751FA002F09D038466268A1688A
:102650009047206A401C2062C01C206206E0206A6D
:10266000FAE762682878A1686D1C9047761EF8D258
:102670002046FFF74FFAF8BD4E414E006E616E00E6
:10268000494E4600696E660010B54369002B02D0C2
:10269000C046C04601E0FFF760FA012010BD127885
:1026A000014624310A7000224A700122ECE71168C9
:1026B0000022D243E8E710B54369002B02D0C046A0
:1026C000C04601E0FFF710FD012010BD1288014651
:1026D000243182840022C2840122ECE711680022A6
:1026E000D243E8E74268002A08D001680B78491C09
:1026F000002B03D0521E06C0184670470121C1604E
:10270000881E70474268002A0BD0C3680168002BFE
:1027100007D183688B4204D0491E521C06C000209A
:1027200070470020C0437047F7B5154682B00027B8
:10273000029C2078641C0197302802D0002D15D00F
:1027400015E020780127641C782804D0582802D08E
:10275000002D09D00BE0002D01D0102D07D12078DD
:1027600000271025641C02E0082500E00A25002649
:10277000009610E000990127694308182946714323
:10278000020C80B200908E183804864201D30120DA
:1027900001902078641C294600F02FFC0028E9DA1B
:1027A0000398002805D0002F01D0641E00E0029C91
:1027B00004600198002806D0FFF77AF90221016031
:1027C000C81E05B0F0BD009930040843F9E70000C9
:1027D000F7B516468AB0334878446C4603467C33D6
:1027E000C06F5A689B680DC42E487844763003AC9D
:1027F0000DC80DC43720C001081837211B30FEF763
:102800003FF905460C46803D1B3C02D56442012041
:1028100000E000200027099010E0E0070CD00C2019
:1028200020497843794432464C394118684601239F
:1028300000F054FA6B4607C364107F1C002CECD1E7
:10284000184F7F442E3F16E0E80712D02001C01930
:102850000EC80691089307920068F04201D19819BA
:1028600008903246012306A903A800F037FA03AB0B
:1028700007C36D10641C002DE6D10998002806D00E
:1028800032466946012303A800F07EFA05E00123E1
:102890003246694603A800F021FA0A9B07C30DB02F
:1028A000F0BD00007C760100034640000A4610B5EA
:1028B000400D0BD00121C9070F24A40200191C03ED
:1028C00064082143540D2143D20207E00021012076
:1028D000F2E7D40F490021435200401E0029F8DAE4
:1028E000DB0FDB07184310BDFFB50D46144685B05E
:1028F000486851680DF0B6FA00910190A868A16887
:102900000DF0B0FA02910390A86861680DF0AAFA80
:10291000029A12188242029201D2012000E00020A5
:10292000019A0B18D2180028019202D08A4202D9CB
:1029300003E08A4201D2012000E00020009908183B
:1029400000906868A1680DF08DFA029A1218824210
:10295000029201D2012000E00020019A0B18D21847
:102960000028019202D08A4202D903E08A4201D2B1
:10297000012000E0002000990818009028682168D4
:1029800040004900400849084018FA49471814E037
:1029900001994000C90F0843009001980299400036
:1029A000C90F08430190029803994000C90F0843DA
:1029B0000290039840007F1E039000980028E7DAF9
:1029C0000898002801D0EC4E00E00026B74201DA5A
:1029D000012000E00020002804902AD0F71BF80610
:1029E000C00E15D0029B2021091A039A8B401A436E
:1029F0000392029A019BC2408B401A430292019AB1
:102A0000009BC2408B4000991A430192C140009143
:102A10007B110DD06F460320C11A03D5002182001F
:102A2000B95003E08A008100BA587A50401EF3D5AD
:102A3000374603980299002800D0012001430898E6
:102A40000291002808460CD0002800D001200199EE
:102A5000019A490508430121D20AC902D202019212
:102A600000E001210E9B0122D207012B02D0002B96
:102A700003D013E0002807D120E0904204D8904210
:102A80000CD1019B0B4209D0019B5918019105D132
:102A90000099491C009101D17F1C009200280DD0A3
:102AA000102108460020C0460498002806D00F9840
:102AB000002803D0082108460020C0462868216865
:102AC000019B009A4840C10F0598C90739430EC0C1
:102AD00009B0F0BDFFB587B0099A08980899536806
:102AE0009268406889689646002203931746944688
:102AF000089A12685300099A5B081268520052083B
:102B00009A1A9E4BD4180A9A002A01D0352200E066
:102B1000402206920022012315460492DB0705930A
:102B200024E0002D05D175460346039E4D1BB3419D
:102B300009D375466646039B491B049D9841059B36
:102B40007519AC465F4163463B4308D0059B049E24
:102B5000DD0776082E435B080496059301E0521EBC
:102B6000641EC50FED0749184041521C069B9A424E
:102B7000D7DB002D04D17546039A6B1A824101D22E
:102B800003200CE0039A0B466B404240134303D0F2
:102B9000014303D0012002E0022000E00020614652
:102BA00001910021009702910A99002905D0614600
:102BB00040020143704B019102E080070023029024
:102BC0009C4201DA012000E0002007003AD01A1BE5
:102BD000D006C00E15D0029D2021019C091AC540C7
:102BE0008C402543029C8C4000D001242543019C4D
:102BF0000295009DC4408D4000992C430194C14032
:102C0000009154111DD06D460221002202290CD1E1
:102C10000320001B07E0002804DB8600AE59002ECD
:102C200000D00122401C0328F5DB081B02D58800D8
:102C30002A5004E08000285810438A00A850491EFA
:102C4000E3D51C460A98002802980CD0002800D032
:102C500001200199019A490508430121D20AC902BC
:102C6000D202019200E00121109B0122D207012B28
:102C700002D0002B03D013E0002807D11FE09042C0
:102C800004D890420CD1019B0B4209D0019B5918EA
:102C9000019105D10099491C009101D1641C009259
:102CA00000280CD0102108460020C046002F06D076
:102CB0001198002803D0082108460020C046089833
:102CC0000999019A009B006809684840C10F07985C
:102CD000C907214382600AC00BB0F0BD00B585B0C2
:102CE000019300920A460146002302A8FFF7FCFD6B
:102CF00002A807C805B000BDFFB50A461F4685B04B
:102D00000799019301230091014602A8FFF7ECFD0A
:102D100002990398049ECA0F4900D20700920F221D
:102D2000490892028C1A0021002800DB0C4645005D
:102D300013486D08844214D3079A002A04DA441E0B
:102D40000026104DF64302E004460D460E461021C3
:102D500008460020C046002F03D00421084600206A
:102D6000C0462005E90A0843009908436905F20AAC
:102D70001143ADE602C0FFFF013C0000FF3F000031
:102D8000FF070000FFFFFF7F00B585B001930092B1
:102D90000A460146002302A8FFF79CFE02A807C8C6
:102DA000A8E7FFB50A461F4685B00799019301239E
:102DB0000091014602A8FFF78DFE02990398049E38
:102DC000CA0F4900D20700920F22490892028C1ABA
:102DD0000021002800DB0C46450011486D088442A4
:102DE00014D3079A002A04DA441E00260D4DF64338
:102DF00002E004460D460E46102108460020C0465B
:102E0000002F03D0042108460020C0462005E90A0F
:102E10000843009908436905F20A114358E6000087
:102E2000FF070000FFFFFF7F70B516460C46054602
:102E3000FFF794FB0368FF200230C05C012807D035
:102E4000FF2C0ED8185D00280BD001202C7070BD0F
:102E5000FF333246214608331868C318284698477E
:102E600070BD0020C04370BDC80212D54803400F9A
:102E7000002804D0C803C043012188407047EFF305
:102E800000800001000903210907084380F300883E
:102E9000704700207047000010B500200249029AD8
:102EA00000F052FB10BD00000000F87FF0B53D4B74
:102EB00002460C461C400020002C63D03A4D8B4348
:102EC00066D000296BDB0B0D1D05A94301252D05DF
:102ED00029430124FD33E34001D392184941FF33D4
:102EE00081339C468B02940D0121234389074C4278
:102EF000920200271B198C105D1A04D42D1B02D4DA
:102F00002B466500491992185B416408F4D15C1A9C
:102F100008D40125ED07EE175519744102D42A464D
:102F20002346491C94185B41012292071D46E61B6B
:102F30008D4106D4B61A854103D42B46550034463C
:102F40007F1924195B415208802AEFD1234300D016
:102F5000022338460A22D04001D3012213438A05B6
:102F600010436246890A12058918002B09D00122F4
:102F7000D34002D30022401C5141002B01D1400814
:102F80004000F0BD0B03134307D0C90FC907F0BDC4
:102F90000803104303D1002901DB1046F0BD0020D7
:102FA0002946F0BD0000F07F0000F87F10B5024810
:102FB00000F0CAFA10BD00000000C07F7546FFF7A0
:102FC000C9FAAE46050069465346C008C0008546AA
:102FD00018B020B5FDF7B0F860BC00274908B64628
:102FE0000026C0C5C0C5C0C5C0C5C0C5C0C5C0C518
:102FF000C0C5403D49008D4670473A2800D2303860
:10300000202302469A43412A01D31046373888428A
:1030100001D30020C0437047FFB58BB00878FF286C
:1030200006D0491C2D2805D000230020009009E07F
:1030300000200EE00123F8E7009A0A24624380187A
:10304000491C00900878FF28F6D1002B02D0009888
:1030500040420090002503952C460D9800782D28BD
:1030600001D02B2815D10D99491C2D280D9102D086
:10307000002003900DE00120FBE7401C21460027C3
:103080000A223B460D90284600F08DFA35183C4642
:103090004C410D980678FF2EEFD100210846002004
:1030A000C0460399002902D0810040184008000260
:1030B000860F012E01DD0026F6430E990098471871
:1030C000284620430BD0FF20F530C7421ADA039878
:1030D000C1070B98002E41600ADD012009E003982A
:1030E000C1070B9841600B99002008600FB0F0BD3C
:1030F00000200B990860FEF7DBFC0221016018211B
:1031000008461AE0FF20F530874219DD002E02DA6A
:10311000FC48784401E0FC48784406C80B9806C097
:103120000B9803994068C90708430B994860FEF75C
:10313000BFFC02210160142108460020C046D5E7EB
:10314000002108460020C04639000A9001D572428D
:1031500000E03246002900DA794207A8FFF738FB81
:1031600007AB07CB04AB07C3E8480090002001463B
:10317000214304D12C460546E44920390091210C15
:103180000904014306D1290C24040C4300992D04A1
:1031900010390091210E0906014306D1290E24029F
:1031A0000C4300992D0208390091210F09070143B2
:1031B00006D1290F24010C4300992D01091F00910C
:1031C000A10F8907014306D1A90FA4000C43009960
:1031D000AD00891E0091E10FC907084304D1009892
:1031E0006D196441401E0090002F0295019406DD88
:1031F00032466846012304A9FFF77EFD05E001235E
:103200003246684604A9FFF7CCFD044603980D46F4
:10321000002802D00120C0074440002108460020B9
:10322000C0460A99BA4E48400007800F07D1600097
:103230004008284303D06000400DB04214D1FEF78F
:1032400037FC022101606000400DB0420CD1B14852
:10325000784406C80B9806C00B98E10FC907406870
:1032600008430B99486041E70B9844600B98056050
:103270003CE7FFB51F4695B0002000250C909E68E6
:103280005C68ED431390FFF771F9C0680168405C1A
:103290001490B96916986D1C88470A90396A884756
:1032A0000028F6D10A98401C0AD00D20C0018443A2
:1032B000002E12DD0A982B2809D02D280DD103E00D
:1032C0000020C04319B0F0BD012080020443B96959
:1032D00016986D1C8847761E0A90600504A901D5D2
:1032E0002D2000E02B206A46491C107410A8002EE7
:1032F0000D910B903BDD0A98692805D0492803D031
:103300006E2801D04E281DD13B4603900220029624
:10331000179A1699C0430095019415F0DBFFC11C64
:10332000D0D10FE0B96916986D1C88470A9001202A
:10333000761E40020443179805601398401C002E27
:10334000139014DD0A983028ECD0782801D0582842
:103350000DD1139801280AD13B460296179A169967
:10336000001F0095019415F0ADFFC11CAAD114995E
:103370000A98884246D18020044308E00C981799A7
:10338000401E0C90012040020443681C0860B9698B
:103390006D1C1698761E884730280A90EED031E0D2
:1033A0001499884205D1200603D480200443761E58
:1033B0001EE00A980CF07AFE002826D0012008A909
:1033C000400204430D980331761E88420BD20A98BE
:1033D0000D99303808700D98401C0D90200607D5C7
:1033E0000C98401E03E0200602D40C98401C0C9060
:1033F000A00502D51799681C0860B96916986D1C5C
:1034000088470A90002ECBDC59E0002E57DD0A9841
:10341000652801D0452852D1A00550D50320B969AF
:10342000000284436D1C1698761E8847002E0A9071
:103430000CDD2B2804D02D2808D1FF2001300443B7
:10344000B96916986D1C8847761E0A90E00501D56B
:103450002D2100E02B210B9801700B98401C0B9044
:10346000009025E0012012A9400204430B9801318D
:10347000761E88420ED20A980B9930380006000E4C
:10348000087003D100990B9888420AD90B98401C08
:103490000B9006E0E00501D51F4801E01E484042C0
:1034A0000C90B96916986D1C88470A9017980560AA
:1034B000002E04DD0A980CF0F9FD0028D2D1F9693C
:1034C000169888470D99FF2004AA08700B99087078
:1034D00000200E900F900C9B10A90EA8FFF79CFDEA
:1034E000A00502D40120C043ECE62420044215D0FC
:1034F000E0071FD138680F9A0E99031D3B600068E2
:1035000006C017E0B2C60100A4C601003E4000009C
:10351000FF0700006CC50100F1D8FFFF0EA9684647
:103520000CF04EFDE00705D13868009A011D3960A6
:10353000006802602846C5E610B50446C046C0468D
:103540002046FCF7D9FE10BD10B50C461107090F37
:10355000092904D00A290AD008290CD104E011460F
:103560000820FFF781FC06E0510606D501E0510670
:1035700001D50120C007214610BDD10607D50101A4
:103580000909CC084907000E0006044309E0410F71
:1035900020024907000A0143200E00061D22D141E6
:1035A00001430846E7E74343514330B55C18010C3B
:1035B000130C0D4692B25D4380B251432C1905465F
:1035C00055430A0C09044D1962415843010C00048B
:1035D0004019514130BD000001491820ABBEFEE743
:1035E0002600020070470000FFB51F4689B01398FF
:1035F00012994005C00FC0070590002007900546AE
:103600000446461E049002903C20491C12910690EC
:10361000B9690A98884703901498401E149014982A
:10362000002841DD03982E2816D01021FFF7E5FC75
:10363000002834DB01210491079901431AD006992F
:1036400000290CDB069AC11700F006FA054306981C
:103650000C43001F069006E0012002900EE00028B7
:1036600001D001200543012007900298002805D1D0
:10367000361D03E00298002800D0361F1298401C27
:103680001290B9690A98884703901498401E1490C4
:1036900004980028C3D00B9912980860BFE70398DC
:1036A000702808D0502806D0F9690A9888470498ED
:1036B000002815D051E000200390012002900498CA
:1036C00000280AD01298401C1290B9690A988847BD
:1036D0001499491E0029149106DCF9690A98884753
:1036E0000120C0430DB0F0BD2B2804D02D280DD1F2
:1036F0000020C04302901298401C1290B9690A98A9
:1037000088471499491E00291491E6DD411CE4D034
:103710000A21FFF772FC0028DFDB03990A225143DC
:10372000081803901298401C1290B9690A988847AB
:103730000A21FFF762FC14990B9A491E1491129901
:1037400011601499002901DD0028E6DAF9690A9868
:103750008847029903984843861913982421084002
:1037600004902846204304D0A10F8907090002D005
:1037700006E005989BE0A90FA4000C43AD00B61E1F
:10378000E10FC907080002D16D196441761E049843
:10379000002803D00B2002905D4803E0282002900F
:1037A0007D20C0438642039007DA811B02980818E7
:1037B0004128029001DD41200290029A012000215F
:1037C000521E00F049F9024628400B4621400843AA
:1037D00001D0012000E0002007900020521EC043CD
:1037E00043412A4023401A4301D0012000E0002039
:1037F00007990690014352D0002108460020C04698
:103800000321059A89050840002A05D08200801806
:10381000C20F1018401008408015012802DD00205A
:10382000C04301E0012815D0401C38D0079800287B
:1038300035D0069800280DD1029A0120002100F011
:103840000BF928402140084301D0012000E000206E
:10385000002824D0029A0120002100F0FDF8034640
:1038600040198C4661412A1A8C410FD30298402896
:1038700007DD0498039E002801D0343E02E0173E85
:1038800000E0761C01240025E40708E05B1E624688
:103890000024E4436241DD43D44305400C400398D7
:1038A0000121081AB04206DA1A4905980843019026
:1038B000002000900EE060006205010BE80A104352
:1038C000059A009068460A4313490A43314601921B
:1038D0000CF0E2FB049800280AD01398C00714D11A
:1038E0003868019A0099031D3B60006806C00CE02F
:1038F00002A869460CF064FB1398C00705D138682C
:10390000029A011D3960006802601298EAE6000020
:1039100002FCFFFF0000F07F0000F03FFFB51D46F6
:1039200087B01198484A109C129E40051399C00F09
:10393000761EC0070243019200220092FF22D205A8
:103940001043202291434929059003D017464E2960
:1039500028D04FE03DA002AA0BC801270BC2A969DD
:103960000898641C8847761E014607D402A8C05DEB
:10397000002803D02022914381420AD0E9690898A7
:103980008847032F36D0082F34D00120C0430BB016
:10399000F0BD7F1C032F01D0082FE0D10999601CD6
:1039A0000860DCE7A9690898641C8847761E2DD456
:1039B000B84341282AD1A9690898641C8847761E13
:1039C00024D4B8434E2821D1A9690898641C88479B
:1039D00001990122D204114301910599D2001143AA
:1039E00005910999761E0C6001D4282806D0E96952
:1039F000089888471198C00712D023E0A969089851
:103A0000641C8847761E01D4002803DAE969089807
:103A10008847BAE72928F1D10998641C0460E9E7CE
:103A200011982421084207D02868019A0099031DA3
:103A30002B60006806C005E028680599021D2A6011
:103A4000006801602046A2E70000F07F494E464929
:103A50004E4954590000000010B5202A04DB0146ED
:103A6000203A9140002010BD914020239C1A03462B
:103A7000E3401943904010BD70B58C180578401C88
:103A80006B075B0F01D10378401C2A1106D1027825
:103A9000401C03E00678401C0E70491C5B1EF9D1E7
:103AA0002B0705D40023521E0DD40B70491CFAE7D6
:103AB0000378401CCB1A921C03E01D780D70491C42
:103AC0005B1C521EF9D5A142D8D3002070BD10B5A1
:103AD000044604F0CBFC204604F086FC04F01EFDF6
:103AE000002807D10024002004F07EFC04F016FD1D
:103AF000002801D0002010BD641CE4B2032CF2D3D6
:103B000004F0DEFC012010BD30B583B000240D466A
:103B100001944178490301918278002A01D0002262
:103B200001E0012212030A4301920078002801D02B
:103B30000120C002104301904020012100902B463B
:103B400001AA084607F068FD002808D030200121AE
:103B500000902B4601AA0194084607F05DFD03B0D2
:103B600030BD000010B50C4682B00D49FDF760FE77
:103B70000C4A0D4990420EDC88420ED2FDF72EFF12
:103B80000190302001210090234601AA084607F049
:103B900043FD02B010BD0348F0E70020EEE700004F
:103BA0000000203800FF7F47000080808030C16027
:103BB000704780220029016801D0114300E0914341
:103BC0000160704710B504210348FFF7EFFF034978
:103BD0000120087010BD00000000014034010020E9
:103BE00080308068084000D001207047F1B582B075
:103BF0000020009029482A4D007800281CD0294830
:103C00002949FDF727F8002601900024274F2C7042
:103C1000234601220321384600F0CEF900231A463C
:103C20000221384600F0B9F90121384600F0DAF9EE
:103C30002878002804D011E06868FDF7CFFDE0E7A0
:103C40007D273F010220641C0EF0A0F9BC4202D186
:103C5000002003B0F0BD28780028F3D01348006B93
:103C6000761C01050098090D08180090052ECCDB84
:103C70003146FCF7F7FE05460B21C9430198FDF7D5
:103C8000F5FE04462846FDF7EDFE214615F01EFA26
:103C900002990860012003B0F0BD0000020000207E
:103CA000340100207B832F4CA60A0840000001400D
:103CB000F0B589B000250446954808950595069508
:103CC00002950078934E002831D093489349FCF731
:103CD000C1FF049001200EF059F9002700258D4EF8
:103CE0002B463570042203218D4800F065F900232E
:103CF0001A4619468A4800F050F90122002311465D
:103D0000874800F04AF9022200231146844800F057
:103D100044F9032200231146814800F03EF90121B5
:103D20007F4800F05FF93078002804D012E0706816
:103D3000FDF754FDCBE77D26360102206D1C0EF009
:103D400025F9B54202DB002009B0F0BD71480078CA
:103D50000028F2D072480899026B1205120D8918DA
:103D600008910599426B1205120D89180591069963
:103D7000826B1205120D891806910299C06B7F1C87
:103D80000005000D08180290052FA7DB394608989A
:103D9000FCF768FE054639460598FCF763FE0646C3
:103DA00039460698FCF75EFE069039460298FCF705
:103DB00059FE0B210290C9430498FDF757FE0746B0
:103DC00004902846FDF74EFE394615F07FF9554917
:103DD00015F07CF920600025257653482061304697
:103DE000FDF740FE394615F071F9064680214F482F
:103DF00003F0F4FD002835D04D48FDF733FE0746AB
:103E00004C49304615F062F93946FDF711FDA060C6
:103E10000421464803F0E2FD03AF012824D04648C0
:103E20004668464B464A31463220009708F0E2F891
:103E300001466846E660007B002803D0304615F056
:103E400045F906466660049E0298FDF70BFE314672
:103E500015F03CF93B49884223DD3B486061022074
:103E6000607652E03220C8E7049E0698FDF7FAFD1E
:103E7000314615F02BF92F4915F028F93349FDF794
:103E8000D7FC3349FDF7D4FC3249FDF7D1FC064697
:103E9000314B324A31463220009708F0ABF80146E8
:103EA000C7E72F492F4E304F88421DDAFDF796FCA9
:103EB00032463B46FDF7A0F8FCF7CCFE1D4915F055
:103EC00005F90221C943FDF7D1FDF1074840274913
:103ED000884203D901206076656116E00D49657658
:103EE000896815F059F80FE0FDF778FC32463B463B
:103EF000FDF777F8FCF7AEFE0E4915F0E7F8022162
:103F0000C943FDF7B3FD65766061012009B0F0BDDE
:103F100002000020340100207B832F4CA60A0840B9
:103F2000000001400000404000000C4200200B4017
:103F3000EE02000000007A44941A002008120020CB
:103F400040110020333343400000A0C1000048422C
:103F5000000048430AD7A33B98130020D01200204A
:103F60009A99193F333333333333E33F000020C290
:103F700010B504210348FFF733FE012801D1FFF7F4
:103F800021FE10BD000001408030002A026801D0EF
:103F90000A4300E08A4302607047930830B49B00F4
:103FA0001B1858689207D40E1F22A2409043A140CC
:103FB0000843586030BC70475B1E12021B04FF3A76
:103FC000013A13430B430168802211400B43036005
:103FD0007047CA06D20E0267490949014167704716
:103FE000016270470029416F02D00122114301E0B4
:103FF0004908490041677047F3B5C1B004A80CF007
:1040000027FB002836D1009041990190029003903F
:1040100008786C46207001204D780723C217920F54
:10402000121892089200821A92008710D2198E7884
:1040300012191570421CD717BF0FBF18BF08BF0059
:10404000D21B9700421C9210CD78BA181219801C0E
:10405000891C5B1E1B0616701B0EDFD14198214682
:10406000C07BE0734298002804A807D00CF0CEF97A
:10407000002807D00020C04343B0F0BD0CF042F848
:104080000028F7D1419900200823491EC217920F3A
:10409000121892089200821A920085105219121971
:1040A00012784A70421CD517AD0FAD18AD08AD009F
:1040B000521B9500421C9210AA18121912788A708D
:1040C000801C891C5B1E1B061B0EDFD1002043B029
:1040D000F0BD000010B40022072801D901220838E1
:1040E0009300064A9B181A6880000F248440A2435C
:1040F00081401143196010BC70470000002002404D
:10410000F0B5374BC000C61893B048080E901001A8
:104110000C908808069010020B90C80805901003B8
:104120000990080904901004089048090A901005A5
:1041300007908809864610060390C8090025844622
:10414000100702900020FF24AC4003460C4240D0F0
:104150000124AC40214201D00F2013460E9F27427C
:1041600003D0F02738430C9F3B43069F274204D0DF
:104170000F273F0238430B9F3B43059F274204D044
:104180000F273F033843099F3B43049F274204D036
:104190000F273F043843089F3B430A9F274204D020
:1041A0000F273F053843079F3B437746274204D0FC
:1041B0000F273F063843039F3B436746274204D0FF
:1041C0000F2424072043029C2343346884431C4368
:1041D00034600835361D092DB4DB13B0F0BD000086
:1041E00020200240F0B500263746012464033A46F9
:1041F00099B001231146204600F0AEF91B4D284628
:1042000000F0CCF96E60E6202860684608F01CFBE0
:10421000002802D0012019B0F0BD10AA5088322227
:10422000C1B25140000A484010AA117F527F41405C
:104230004A4000210E4B7F26284636015D5C5540E2
:1042400005735D186D7855400573891CB142F5DB27
:10425000856800F0A3F920463A4620430023114622
:1042600000F07AF9284619B0F0BD000000A008401F
:104270009004002070B5094D00242878072806D046
:10428000082807D0092807D00A2805D070BD01F0FA
:104290009DF901E001F04CF92C7070BDC5010020C2
:1042A000F0B585B003F016FC05007AD0774C0420F9
:1042B0002278774F77490026062A73D213007B4471
:1042C0001B79DB189F44186F0A027AC861780029AD
:1042D00002D0491E6170C9E02070C7E060780028F4
:1042E00005D0401E60706068B8427ADBC5E01020DF
:1042F000607003202070B9E07F22A068D205904250
:1043000014D16548407E002804D00220207032205D
:10431000607007E0286E14F0D9FEFDF739FB60707D
:10432000012020706068B8425BDBA6E0FDF756FA1A
:104330005A4A5B4BFCF748FEFCF78CFC7F21C90511
:10434000A060884201DDA16003E0FF21C905C842E9
:104350007ED2686D0090286D009914F03BFF0490A8
:1043600000986060A068FDF739FA4E4A4E4B11F094
:1043700089FE054603910498FDF730FA2A46039B0F
:10438000FDF7D8F8054603916068FDF727FA2A463D
:10439000039BFCF719FEFCF75DFC6060B84265DB2F
:1043A0006BE065E066E06178002902D0491E61702B
:1043B00000E020706068B84258DB5EE0A068420010
:1043C000120E0FD0FDF70AFA344A354BFCF709FEFE
:1043D000FCF740FC7F21C905A06088420EDDA1608A
:1043E00010E043E0686E14F071FEFDF7D1FA6070E2
:1043F000052020706068B84238DB3EE0FF21C90527
:10440000C84241D2686D0090286D009914F0E2FE18
:10441000049000986060A068FDF7E0F9214A224B03
:1044200011F030FE02900D460498FDF7D7F92B46A7
:10443000029AFDF77FF8054603916068FDF7CEF913
:104440002A46039BFCF7C0FDFCF704FC606000E01B
:1044500018E0B8420ADB10E06078002802D0401E65
:10446000607000E026706068B84206DA0F48867017
:1044700005B0F0BD6068B842F8DB0C4901208870D7
:1044800005B0F0BDA66064E7A660BBE73804002075
:10449000CDCC4C3D00004842700D00207B14AE474F
:1044A000E17A943F9A99999999990340941A002036
:1044B000F0B44209254B92000021D2182E2800D1D9
:1044C0000221C0061368C00E032282401340C3407D
:1044D0005B181F49486B44070868640FC869C50F1B
:1044E000486800268005C00F1A4A002803D01046ED
:1044F000002D0ED101E030460BE08869C00D0007A9
:10450000000F00D110208D69124F6D02AD0F78435E
:10451000E840082C10D225007D442D796D19AF4458
:104520000B0C03030B0B0508104606E00120C0032B
:1045300003E07D20000200E03046096A052901D32E
:10454000400900E0C840F0BCD840704738800840BF
:104550000080084000127A00F0B4084F7D6AFE6ABD
:104560003C6B85438E439443002B02D005430E439E
:1045700014437D62FE623C63F0BC704700800840DB
:1045800010B4054B9A6A07248440A24381400A4331
:104590009A6210BC704700000080084010B50021EE
:1045A000802001230A4607F0C1FD10BDF8B50027A1
:1045B0000126044676033A46012311463046FFF7AA
:1045C000CBFF1B4D2846FFF7E9FF6F60E620286010
:1045D00000212846635C037363185B780373891CAE
:1045E0006029F7DB8468FFF7D9FF30463A4630434D
:1045F00000231146FFF7B0FF0421684606F068FB70
:10460000002801D00020F8BD684600780102684605
:1046100040780843010268468078084302026846F1
:10462000C17820461143484002494840F8BD000087
:1046300000A00840E5F86A3CF8B5002601204003D8
:104640003246114C074601231146FFF785FF0F4DF7
:104650002846FFF7A3FF6E60E62028600020215C5B
:104660002973211849782973801CF028F7DB284624
:10467000AC68FFF793FF3246002311463846FFF738
:104680006BFF03484467F8BDB00C002000A0084051
:10469000300D0020F8B504460026012040033246C4
:1046A000074601231146FFF757FF0E4D2846FFF737
:1046B00075FF6E60E62028600020215C29732118B8
:1046C00049782973801CF028F7DB2846AC68FFF78F
:1046D00065FF3246002311463846FFF73DFF20466E
:1046E000F8BD000000A0084038B51C4801691CA0B6
:1046F0000AF046FE6946022000F00EF90106090E96
:1047000001D025480DE0254800990AF039FE24A083
:104710000AF046FC022008F05FF80106090E03D0FB
:104720002C480AF02DFE0BE00121C9022A4806F0B0
:104730002BF9002801D0294800E029480AF030FC74
:1047400028480024284A04700121117044700BF09D
:1047500017FA00F0F1FB2548047038BD74040020FE
:104760002573E7B3BBE7BB9FE6ADA3E59CA8E9AA29
:104770008CE8AF81E69687E4BBB6E5AE8CE695B4EF
:10478000E680A72CE8AFB7E7AD89E5BE852E2E2ED3
:104790002E20202000000000B0A70100C8A40100C6
:1047A0000D0AE8AFB7E88090E5BF83E7AD89E5BEC5
:1047B00085E7B3BBE7BB9FE5AFB9E69687E4BBB639
:1047C000E8BF9BE8A18CE9A284E5A484E790862E4B
:1047D0002E2E000060A7010050530000ACA5010080
:1047E00000A6010064000020A6010020A80100200E
:1047F000F8B50025012676032A463C4C01231146D4
:104800003046FFF7A9FE3A4F3846FFF7C7FE7D60F6
:10481000E6203860384600231927BF01E15C0173A8
:10482000E118497801739B1CBB42F7DB8468FFF7F2
:10483000B5FE30462A46304300231146FFF78CFE72
:104840000421684606F044FA002811D16846007831
:1048500001026846407808430102684680780843B0
:1048600001026846C0780843444022484440254637
:104870002148006CA84201D00220F8BD1F49322017
:1048800000F074FA04461E49322000F06FFA002C42
:104890002AD0002828D01549322000F067FA0446B3
:1048A0001849322000F062FA002C1DD000281BD0DD
:1048B0001549322000F0ACFA04461449322000F0C9
:1048C000A7FA002C10D000280ED01149322000F099
:1048D0009FFA04460F49322000F09AFA002C03D0C8
:1048E000002801D00020F8BD0320F8BD200E0020D4
:1048F00000A00840E5F86A3520140020401100208F
:10490000D0120020B00F00200812002098130020C1
:10491000E80E002078100020F3B5A3B00025802118
:104920001F9520952191022819D0002800D0080158
:104930001E900120400301232A4622901F99FFF771
:104940000BFE484E34463046FFF728FE6560E620F1
:104950002060684607F078FF00281ED102E0424838
:104960001E90E6E710AA50883222C1B25140000AD8
:10497000484010AA117F557F41404D40684607F0DE
:1049800063FF002809D100273C461AAE10221AA85E
:104990001E9906F057F8002802D0012025B0F0BD7E
:1049A00000211AA8FFF728FB002802D0022025B01A
:1049B000F0BD7F2039010001401A10284DDC00288D
:1049C0004DDB14DDC107C90F04D018AA127A254B9C
:1049D0006A401A7381420ADA224A735C6B4013738D
:1049E00073185B786B401373891C8142F5DB1028C8
:1049F00008DA19A9042C05DA325C0A55401C641C3B
:104A00001028F7DB1E98219910307F1C1E908F42D2
:104A1000BCDB18A90879497900020143080218A9EA
:104A200089790143080218A9CD7905430D488468A6
:104A3000FFF7B4FD01212298490308430023209A7F
:104A40001F99FFF789FDA54202D0032025B0F0BDD4
:104A500024980460002025B0F0BD1020B2E70020AB
:104A6000C7E7000000A008405053000010B50446FE
:104A7000FFF79CFD216E814201D0002010BD012076
:104A800010BD02001BD00020115C552919D042290D
:104A900017D0532915D0522913D0542911D04129A8
:104AA0000FD02D290DD00B46573B032B09D9313997
:104AB000082906D9115C002900D1481E7047002042
:104AC0007047401C2028DFDB70470000F0B5B7B00E
:104AD0000746014670221AA805F0B4FF002846D107
:104AE000052227A134A8FBF731FE00283FD1264D2F
:104AF000002658207043C11958226846703105F0CD
:104B0000A1FF002833D11690179001204003002206
:104B10006C46012311461890FFF71EFD2846FFF74B
:104B20003DFD00206860E620286000212846625C88
:104B30000273621852780273891C5829F7DB846863
:104B4000FFF72CFD0023179A16991898FFF704FD1C
:104B5000B1001AA809188969A14208D169460978E3
:104B6000002900D0012180194078884202D000201D
:104B700037B0F0BD761C142EBBDB012037B0F0BD82
:104B8000444433350000000000A0084010B503A2E3
:104B900012A101200AF0F6FA10BD0000446562750A
:104BA00067206D6F646520456E61626C65642C667C
:104BB00069726D7761726520736563757269747966
:104BC00020666561747572652077696C6C2062651A
:104BD0002064697361626C65642E000046575365FA
:104BE00063000000F0B440314D881C4E4121AF1BE2
:104BF0004B2246233C24B5420BD00FDC184EAD1996
:104C000024D0012D22D0174BEB1815D0164CE342BF
:104C10000BD182600160372141601BE0134D7D198B
:104C20000FD0012D0DD0022D0BD0826001603721F5
:104C30004160F0BC01207047816038210160322161
:104C4000EAE744604E210360816003E04460502144
:104C500003608160F0BC002070470000654E0000DA
:104C6000FFEFFFFFDCDEFFFFD5E2FFFF64DEFFFFAB
:104C7000F8B51C4D002410A2204629680AF082FADB
:104C80000020194EFF2730702D370A200DF058F9FB
:104C9000641CBC4206D115A2032029680AF072FAEE
:104CA00009F044F830780028EFD01BA200202968D2
:104CB0000AF068FAF8BD0000436865636B696E67C7
:104CC0002053797374656D206865617274626561E3
:104CD000742074696D65722073746174752E2E2E44
:104CE000000000000C0000200000002053797374C5
:104CF000656D2038487A20686561727462656174F8
:104D00002074696D657220646964206E6F7420730D
:104D1000746172742E00000053797374656D20689D
:104D200065617274626561742074696D6572206971
:104D30007320776F726B696E672E00000021002868
:104D400006D00278002A09D0425C303A0A2A01D300
:104D500001207047491C425C002AF5D100207047B1
:104D6000014901200870704730000020F3B583B07E
:104D70000D0047D00398002844DD0024471EA600FC
:104D8000A8594100090E3DD0BC4201DA611C01E086
:104D90000399491E0A46002C01DD611E00E0002136
:104DA000019191000091695814F03CF901D1BC4285
:104DB00025DB0198A95980000190285814F032F998
:104DC00001D1002C1BDC0198A959285814F0D6F900
:104DD00005D200982958A85914F04EF90FD301981C
:104DE000A959285814F048F905D200982958A8590B
:104DF00014F0C4F903D30398641C8442BFDB039806
:104E0000844202DA002005B0F0BD012005B0F0BDFB
:104E1000002901D0002801DC00207047084B10B4A5
:104E2000002294000C599C4207DC002905D0521C3A
:104E30008242F6DB10BC0120704710BC0020704796
:104E40000000C841F1B50098002831D0FBF75CFCA8
:104E5000184D06460024A700E859FBF755FCB04260
:104E600023D1E8590099FBF7ADFD00281DD1092C8D
:104E70001BD2200078440079001887440406080AF1
:104E80000C0E101214000020F8BD0120F8BD022005
:104E9000F8BD0320F8BD0420F8BD0520F8BD0620AC
:104EA000F8BD0720F8BD0820F8BD641C092CD2DB32
:104EB0000920F8BD1C020020002801D10220704703
:104EC00010B50446052208A1FBF707FC002807D00F
:104ED000062207A12046FBF700FC002801D0022093
:104EE00010BD012010BD0000547275650000000067
:104EF00046616C7365000000F0B400234C1E002C6A
:104F000013DD0126421ECD07F607F54201D0537886
:104F1000521C56780025641006D097789B19D678D5
:104F2000ED19921C641EF8D15B19491E01D4405C36
:104F3000C318F0BCD8B270470C4B00229A5E002018
:104F4000002A0DDD0A49D20701D04870491C002211
:104F50009A5E521004D048708870891C521EFAD193
:104F6000044908800449188008707047CA0100206D
:104F700003180020CC010020C5010020F0B56B4CC7
:104F80009BB061792079814206D0607100287DD183
:104F900006F0E4FEFFF7D0FF65480078052875D1DC
:104FA0002079002809D00020199006F0D5FDA078BE
:104FB000012826D000280BD023E000F05BFB5DA089
:104FC00009F0EEFF14225C4904A809F0D9FAEBE7D6
:104FD00020690326002813D0FBF796FB00280FD08A
:104FE0005548FBF791FB05462069FBF78DFBA8426E
:104FF00006D1802250482169FBF7A8FB00282AD05F
:10500000A6704A480079002865D11998002870DDFB
:1050100000240498FBF778FB484D012600902420DB
:10502000604347197868FBF76FFB0099024691428D
:1050300005D104997868FBF789FB002803D0641C2C
:10504000761C202EEBDD202C59DA0020242254433C
:105050000146621905E00220A070D2E7401C042836
:1050600002DA135C032BF9D1002853DD0123012858
:1050700008DB2E4CE478555CA54203D0491C5B1C30
:105080008342F8DD814228DA202000E023E0805CC2
:10509000012802D1264800210170244C107E207185
:1050A0006071274804ABC11A002901DD142905DB12
:1050B000502219462248FBF7DAFB0AE000218A0059
:1050C0009D588550D51812186D68891C5560142993
:1050D000F5DB199860611BB0F0BD1AA009F060FF04
:1050E00023A009F05DFF049809F05AFF21A009F000
:1050F00057FFFFF721FF06F031FE1BB0F0BD21A0E6
:1051000009F04EFF1AA009F04BFF049809F048FF80
:105110002148ECE78142B5DA044BDB78545C9C42D1
:10512000B0D0491C8142F9DBACE70000A4010020AB
:10513000C50100200D0A000004180020FC970100A2
:10514000B41400200D0A0D0A1B5B34303B33316D63
:10515000E5AFB9E4B88DE8B5B72CE682A8E6B2A110
:10516000E69C89E69D83E99990E4BDBFE794A80099
:105170002200000022E591BDE4BBA42E1B5B306D34
:10518000000000000D0A0D0A1B5B34303B33316D0B
:10519000E591BDE4BBA42000B0B80100F0B50C4619
:1051A0009FB001460DA820220230FBF7D5FB764DBB
:1051B000297808A8017169786846017028690B9000
:1051C00068690121C905884201DB686900E00020A7
:1051D000686169696D48814200DC68696861686975
:1051E0000C906B4808A98278CA7102784A7140789D
:1051F0008871684E12201D960CF0A2FE1DA805F0C5
:10520000EFFD1D98B04202D000F076FB686016A852
:10521000FEF74EFD60490026002825D0179806901D
:1052200018A8007C002827D00A460492169A0592F6
:1052300018AA527C002A21D00B46079308AB5A7556
:105240001875564F002C3ED0012008A90872A0689E
:105250000290E068039060680190B96A606813F09A
:105260008DFF0DD201200CE006910491059108A854
:10527000079146750675E4E71A9AD6E71B9BDCE7AB
:10528000002008A98870796A606813F0F5FE01D2E1
:10529000012000E0002008A94870396A606813F016
:1052A000EBFE01D2012000E0002008A908703C4973
:1052B000E068096813F062FF01D8012000E00020D7
:1052C00008A9C87005E008A8067203910291089623
:1052D000019134480078002819D06A78324933485F
:1052E000062A38D006DC032A47D0042A39D0052AFA
:1052F00004D136E0072A3AD00F2A2CD0C28C8A4239
:1053000001D2521CC284FFF797F90AF0D9F9284854
:10531000284C0670227828490120505468460BF02A
:10532000E3FE21786B4689000919886120780028FE
:1053300009DB132807DC582148432049582241182B
:10534000184605F0E5FB20781421401CFBF78AFB8A
:1053500021701FB0F0BD828C8A42D4D2521C82844C
:10536000D1E7028D8A42CED2521C0285CBE7428C15
:105370008A42C8D2521C4284C5E7028C8A42C2D2F9
:10538000521C0284BFE70000941A00200000C842AB
:10539000D7030020000040450000C07F100C002013
:1053A000400000202F000020FE7F0000700D002034
:1053B00034000020B00D0020B10D0020701000005E
:1053C00010B5474C2078002819D0212876D201004A
:1053D0007944097949188F447122101319161C1F3A
:1053E00025282B2E3134373A3D404346494C4F5205
:1053F00055585B5E6164676B6E0005F0A3F810BDE5
:1054000005F0A4F910BD0BF059FF10BD13F06AF9B7
:1054100010BD0CF0F5FB10BD13F094FB10BD02F0B5
:10542000C9FD10BD10F01EF810BD12F08BFA10BDB2
:1054300007F05AFA10BD03F0EDFB10BD0EF0D8FED8
:1054400010BD0EF05BFE10BD11F016FD10BD11F089
:10545000E3FB10BD0EF0C0FD10BD05F03DFD10BD1D
:105460000FF010FC10BD0FF0BBFE10BD12F0BAF92A
:1054700010BD10F0FDFD10BD0BF02CFE10BD12F0A4
:105480003BFD10BD10F020F910BD0BF099FA10BDD6
:105490000CF010FC10BD10F065F910BD0CF0F2FF1F
:1054A00010BD12F0C9FF10BD11F080FB10BD05E06A
:1054B0000CF0D6FD10BD0DF0CBFF10BD094809F072
:1054C0006FFD094809F06CFD084809F069FD08A066
:1054D00009F066FDFFF730FD0020207010BD0000D0
:1054E000A8010020D8BD0100041800201CBE010046
:1054F0000D0A636F6D6D616E6420656E7472792E36
:1055000020466F7220646576656C6F7065722C67DB
:105510006F20746F202748616E646C6572456E74ED
:1055200072792E632720746F20636865636B2E0089
:10553000F8B5204C0120205600251F4E1F4F002893
:105540001DD01BDD401E60701D4813F0C1FA0146DE
:105550007F2009F0D1FC3580FFF7EEFC01202056BA
:105560001849C001411880221548FBF7F5F9144885
:10557000FBF7CAF83880124809F012FDF8BD002088
:10558000C04360700E4813F0A3FA01467F2009F073
:10559000B3FC3580FFF7D0FC80220B490848FBF7AD
:1055A000DBF90748FBF7B0F83880054809F0F8FC4C
:1055B000F8BD0000BC010020CC010020CA01002081
:1055C000041800200415002084170020F8B5234C8F
:1055D000012020560025411C214E224F002920D0B9
:1055E0002178491E88421BDA401C60701E4813F067
:1055F0006FFA01467F2009F07FFC3580FFF79CFCA5
:10560000012020561949C001411880221648FBF795
:10561000A3F91548FBF778F83880134809F0C0FC67
:10562000F8BD6570802210491148FBF795F90E48C6
:1056300013F04EFA01467F2009F05EFC3580FFF73B
:105640007BFC802209490848FBF786F90648FBF7EE
:105650005BF83880044809F0A3FCF8BDBC010020C9
:10566000CC010020CA0100200418002004150020ED
:105670008417002070B50D4D0424E0014019014647
:1056800080398022FBF7B2F8641E002CF5DC802202
:1056900007490648FBF7AAF806490878052801D209
:1056A000401C08700020C043487070BD04150020E5
:1056B00004180020BC010020F0B5012295B008219B
:1056C0001046FEF71DFD504C01220821204602F035
:1056D00027F90821204602F086F906221021002031
:1056E000FEF70EFD062220210020FEF709FD002214
:1056F0002021464802F05CF9E12676020024684643
:1057000004964483FF21048301318182404FC48287
:1057100004A9384609F0EAFC01224021384609F084
:1057200013FD01228021384609F00EFD00221146AA
:10573000384609F011FD00220121384609F00CFD20
:1057400019230294DB01684603948621C3810181F9
:10575000012585722F4AC4720321090201928181B9
:1057600069460220009705F0A7FE0121022005F0FE
:10577000B9FE00F049FA01220021384609F0F7FC91
:1057800001221146384609F0F2FC23484470857026
:1057900003F0F4FA0023012220A124A0009609F0CE
:1057A000EFFD2F4E302234702E4908A8FBF71EF86B
:1057B000002108A8FEF720FC00210CA8FEF71CFC25
:1057C000002110A8FEF718FC08A809F0E9FB0894CE
:1057D00009940A940B940C940D940E940F941094C5
:1057E00011941294139435701FA009F0D9FB254829
:1057F00009F0D6FB244809F0D3FB244809F0D0FB7C
:105800000AF0BEF915B0F0BD00200B4000000B40BF
:10581000000004408B180020C401002058746572F9
:105820006E20526970706572000000000C1B5B32C4
:105830004A257320426F6F74537472617020524F07
:105840004D205625642E25642E2042495354204273
:10585000617564726174653A25646270730D0A0043
:105860002C0000207C9C0100202020416C6C2072C8
:1058700069676874732072657365727665642E0D4E
:105880000A0D0A0090BC0100E4BC010008BC010044
:1058900010B584B0104A11A1042009F073FC124C19
:1058A0001248A16C09F06CFDA06C009000206946C4
:1058B0004881FF22088101328A80C8800C4809F0A3
:1058C00015FC0C480121016001680129FCD006F09B
:1058D00045FA04B010BD000038BD0100456E644FAC
:1058E00066506F73740000009004002088BD0100B2
:1058F00000000440AC00002010B5064913F0E6FBA0
:105900000121C905884201DA002010BD0249FBF7D8
:105910008FFF10BD0000C84200007041002805D074
:105920008030807A082803D002A0704704A0704716
:1059300004A07047E99A8FE69CBAE78886E997AA9F
:1059400000000000E7BABFE680A7E58F98E9A291C2
:10595000E997AA0070B5164D287803281ED1154C7A
:10596000154922790020242343435B181B7E934270
:1059700007D1242250434018C069002804D0804732
:1059800002E0401C2028EEDB00262E70FFF7D4FA40
:105990000A480178002902D00670267170BD08A05F
:1059A00009F0FEFA20790028F7D106F0D7F9F4E7DC
:1059B000C5010020A4010020FC970100DC010020AB
:1059C0000D0A5E4300000000F8B5754C0220205E11
:1059D000002801DD401E92E002F07CF805005FD057
:1059E00070480068704909684840FCF73BF8704F00
:1059F00006466E49386813F069FB314613F0CCFA5D
:105A0000FBF7ECFF6B49096F4840FAF7F5FD60784A
:105A1000002629182031097C412972D00EDC2D394D
:105A20000D296FD208007844007900188744908EC1
:105A30008E8E6B6D6F71737577797B0055294FD0A2
:105A400008DC42290FD0522973D053296ED0542933
:105A50007CD113E0572918D0582926D059292BD0AA
:105A60005A2973D132E0FAF74DFC6321FBF708F8AD
:105A7000491C32296ADB6078401C6070207800285D
:105A80000FD026706078401C6070C0B2401C6070FF
:105A90000021C943E86FFBF7E9FFFBF779FF60805E
:105AA000F8BD012020706670F8BD401C6070E86F82
:105AB000FBF76EFF6080F8BD401C60700121E86F4D
:105AC000FBF7D4FFFBF764FF6080F8BD401C6070FB
:105AD0000221E86FFBF7CAFFFBF75AFF6080F8BDB1
