:020000040000FA
:10000000F81F0020C100000019B20000397800007C
:10001000FFFFFFFFFFFFFFFFFFFFFFFFFFFFFFFFF0
:10002000FFFFFFFFFFFFFFFFFFFFFFFFEDDD000012
:10003000FFFFFFFFFFFFFFFF0DC00000ADE5000069
:1000400035010000350100003501000035010000D8
:1000500035010000350100005D660000350100003B
:10006000A93F0000FFFFFFFF3501000021720000E3
:10007000B97100003501000035010000FFFFFFFFEE
:10008000FFFFFFFF350100003501000035010000D2
:100090003501000035010000350100003501000088
:1000A0003501000035010000350100003501000078
:1000B0003501000035010000350100007DB200006F
:1000C0002048804720488047204800472048016951
:1000D000002908D14169002905D18169002902D18F
:1000E000C169002909D01B48C1680901090D00290F
:1000F0000ED005290CD006290AD0BFF34F8F164821
:100100001649016016491548C860BFF34F8FFEE7D6
:10011000114801681148884200D0704711481249BF
:1001200001600D48114901607047FEE7FEE7FEE7F8
:10013000FEE7FEE7FEE700000D480E490C4A0E4BB5
:1001400070470000CD000000C1E500007D01000007
:100150000003084080010840000000200400FA0568
:1001600000ED00E0008108400100000000000000F8
:10017000F8130020F81F0020F813002000F002F808
:1001800000F0B1F80CA030C8083824182D18A24689
:10019000671EAB4654465D46AC4201D100F0A3F861
:1001A0007E460F3E0FCCB6460126334200D0FB1AE6
:1001B000A246AB463343184710F7010030F7010061
:1001C0000023002400250026103A01D378C1FBD873
:1001D000520700D330C100D50B60704710B56E29AF
:1001E00002D101F001FC10BD702902D101F043FDE4
:1001F00010BD662902D117F045FD10BD652902D159
:1002000017F040FD10BD672902D117F03BFD10BD6E
:10021000612902D1C046C04610BD03681B0A01D344
:1002200080231943692902D101F0A8FB10BD64297C
:1002300002D101F0A3FB10BD752902D101F09EFB94
:1002400010BD6F2902D101F0C1FC10BD782902D187
:1002500001F0FEFC10BDE92902D101F05DFC10BDEA
:10026000E42902D101F058FC10BDF52902D101F0BA
:1002700053FC10BDEF2902D101F0B4FC10BDF829E8
:1002800002D101F0F3FC10BD0368DB0901D3802328
:100290001943632902D102F0E0F910BD732902D19C
:1002A00002F0E3F910BDE32902D102F0EDF910BD2F
:1002B000F32902D102F0F0F910BD002010BD1FB5E6
:1002C00000F098F802F05EFB04000020002117F017
:1002D00099FA401C60600020002117F07DFAE06070
:1002E0001FBD10B510BD02F02DFB1146FFF7E7FF53
:1002F00013F0F8FB03F05AF903B4FFF7F2FF03BC65
:1003000003F0A4F930B40C490C684A6823681068FB
:10031000C0181060241D121D8C4207D28A4208D2D8
:100320000C604A6030BC4000400870470C00DC3C68
:10033000F6E70A00DC3AF3E79013002070B50546B3
:100340000C46164602E00FCC0FC5103E102EFAD216
:10035000082E02D303CC03C5083E042E07D301CCDC
:1003600001C5361F03E021782970641C6D1C761EC0
:10037000F9D270BD7CB51D4616460C00009001D028
:100380000019401E084B7B442A46694601903046BE
:1003900001F043FB002C054603D06946002001F024
:1003A0004FFB28467CBD0000C116000070B5064614
:1003B00001F066FA0468054630460A22002101F081
:1003C00081FD2C6070BD00000B4A30B511460B4C0E
:1003D00060310B46DC3B0CC1372106E0020C8D007E
:1003E00012185A51064A504300190A46491E002A5B
:1003F000F4DC30BD0120E7E730130020E119D666B8
:10040000CD0D010010B5431E5C785B1C002CFBD1A8
:1004100005E00C78491C1C705B1C002C03D0521E9C
:10042000F7D20021197010BD30B505460B462A469B
:100430001C781078521C5B1C002801D0A042F7D019
:10044000002C03D0002802D06D1CEFE7284630BDF9
:10045000034610B50B439B070FD1042A0DD308C8E0
:1004600010C9121FA342F8D018BA21BA884201D984
:10047000012010BD0020C04310BD002A03D0D307C7
:1004800003D0521C07E0002010BD03780C78401CFC
:10049000491C1B1B07D103780C78401C491C1B1BF3
:1004A00001D1921EF1D1184610BDF7B505460E4692
:1004B0000020044600E0641C02998C420BD2285DA7
:1004C00001F0EDF90746305D01F0E9F9381A02D183
:1004D000295D0029EFD1FEBD30B5441C03E0017851
:1004E000401C00290DD08107F9D10B4BDD0104C858
:1004F000D11A91432940FAD0001B0A0603D0C01E2E
:1005000030BD001B30BD0A0401D0801E30BD090281
:10051000FCD0401E30BD0000010101010346F0B5D2
:100520000B439B072DD1244DEF01042A29D308C882
:1005300010C95E1B9E43121F3E4017D0D8B2E1B2D5
:10054000401A3106014310D198B2A1B2401A3104C9
:1005500001430AD118022102000A090A401A310295
:10056000014302D1180E210E401AF0BDA342DCD087
:1005700018BA21BA884201D90120F0BD0020C04339
:10058000F0BD002A01D10020F0BD03780C78401C9A
:10059000491C002B0DD0A3420BD1521E09D0037869
:1005A0000C78401C491C002B03D0A34201D1521EE1
:1005B000EBD1181BF0BD000001010101F8B5042AC0
:1005C0002CD3830712D00B78491C0370401C521E99
:1005D00083070BD00B78491C0370401C521E830705
:1005E00004D00B78491C0370401C521E8B079B0FD4
:1005F00005D0C91ADF002023DE1B08C90AE0FFF777
:100600009DFEF8BD1D4608C9FD401C46B4402C4364
:1006100010C0121F042AF5D2F308C91A521EF0D4D2
:100620000B78491C0370401C521EEAD40B78491CFD
:100630000370401C012AE4D409780170F8BD431A04
:1006400070B593421BD28918801804E0491E401EE1
:100650000B78521E03709307F8D106E0103910385A
:1006600078C9103978C01038103A102AF6D203E051
:10067000091F001F0B680360121FF9D570BDFFF73B
:100680005DFE70BDF8B5064614460843800707D0E6
:10069000751AA54219D20819102D13D2311907E085
:1006A0003046FFF7CCFFF8BD401E491E02780A70A5
:1006B000641EF9D2F8BD471B2A463946FFF77EFF74
:1006C000641B3846A542F6D3011B22463046FFF78D
:1006D00075FFF8BDD2B210B513029A1813049A1818
:1006E00000F00EF810BD01E004C0091F0429FBD280
:1006F0008B0701D50280801CC90700D002707047AB
:1007000000290BD0C30702D00270401C491E0229E9
:1007100004D3830702D50280801C891EE3E70022F0
:10072000EEE70022DFE70000F8B507460B46394642
:100730001943890713D1164CE601042A0FD302CBC3
:100740000D1B8D43354202D102C0121FF5E7CBB21B
:100750000370401C521E002B13D0090AF7E7002A31
:1007600014D01978521E5B1C0170401C002908D05F
:10077000002A0BD01978521E5B1C0170401C002906
:10078000EDD1002A02D01146FFF7C9FF3846F8BD67
:100790000101010182078B079A4237D170B5920F90
:1007A0000AD0032402780B78401C491C002A2BD065
:1007B0009A4229D12042F5D11D4EF40104C808C93E
:1007C000951B9543254010D19A4207D104C808C90A
:1007D000951B9543254008D19A42EFD012BA1BBA17
:1007E00001209A4200D2404270BD12BA1BBA2DBA03
:1007F00018241000E0401900E140401A05D12E00F5
:10080000E64002D1083CF4D1D01A70BD02780B78D2
:10081000401C491C002A09D09A4207D102780B7863
:10082000401C491C002A01D09A42EFD0D01A7047D0
:1008300001010101002203098B4273D3030A8B4299
:1008400058D3030B8B423CD3030C8B4221D312E0D1
:1008500003460B437FD4002243088B4274D3030921
:100860008B425FD3030A8B4244D3030B8B4228D3C2
:10087000030C8B420DD3FF22090212BA030C8B42E8
:1008800002D31212090265D0030B8B4219D300E088
:10089000090AC30B8B4201D3CB03C01A5241830B0D
:1008A0008B4201D38B03C01A5241430B8B4201D3BD
:1008B0004B03C01A5241030B8B4201D30B03C01AE6
:1008C0005241C30A8B4201D3CB02C01A5241830A60
:1008D0008B4201D38B02C01A5241430A8B4201D38F
:1008E0004B02C01A5241030A8B4201D30B02C01AB9
:1008F0005241CDD2C3098B4201D3CB01C01A524120
:1009000083098B4201D38B01C01A524143098B42A8
:1009100001D34B01C01A524103098B4201D30B0191
:10092000C01A5241C3088B4201D3CB00C01A5241B6
:1009300083088B4201D38B00C01A524143088B427B
:1009400001D34B00C01A5241411A00D20146524114
:10095000104670475DE0CA0F00D04942031000D333
:100960004042534000229C4603098B422DD3030A88
:100970008B4212D3FC22890112BA030A8B420CD398
:10098000890192118B4208D3890192118B4204D3C1
:1009900089013AD0921100E08909C3098B4201D341
:1009A000CB01C01A524183098B4201D38B01C01A7B
:1009B000524143098B4201D34B01C01A52410309F2
:1009C0008B4201D30B01C01A5241C3088B4201D3A1
:1009D000CB00C01A524183088B4201D38B00C01A4E
:1009E0005241D9D243088B4201D34B00C01A524125
:1009F000411A00D20146634652415B10104601D3B2
:100A00004042002B00D54942704763465B1000D33B
:100A1000404201B50020C046C04602BD7047704745
:100A2000704700000246C80FC00781434B0030B535
:100A30004B405B009B0D20D01923DB06C918012316
:100A40001B05994220DB0324A40704251346AB4071
:100A50000BD3002B04D1EB0613409B00E34204D4DC
:100A600001246407002312195941FF231B059942F1
:100A70000BD2C9000143500F09E0CB0204D501435A
:100A80000803024305D0054830BDFF21C9050843CE
:100A900030BD084607210905884330BD0000C07FEE
:100AA000F0B50C46871A9C410D46861A9D4103D22B
:100AB000C01BA141D21963410D0D1F0DC94EEC1B86
:100AC000AE435CD07F057F0D0026002F51D02D0551
:100AD000AC46A943DD020123ED0A1B051D4320237B
:100AE0001B1B24D41746E740381871412F46E740B6
:100AF000CC199D402818314661410C0D27D1614425
:100B00009A4013D50023401C594152000ED1400891
:100B1000400001224B005205D34207D30520400775
:100B2000C14201D5B04900E0B0493046F0BD6B008C
:100B3000002A00D001229A181F23203C1B1B01D53C
:100B4000002302E0E540281871410C0DD7D00124A4
:100B500024050919C407CD0740084908E40F2843B4
:100B60006144002CD5D00024401C61419A40D0D172
:100B7000CDE76A05520DD9D1C90FC907D5E79C4DFC
:100B80004E00002801D0012400E0002434195F0049
:100B9000002A01D0012600E00026BE19954FAC4284
:100BA0000CD8AE420AD8B44206D001256D05EC42FD
:100BB000BCD010461946F0BD9942FCD00020394601
:100BC000F0BDF0B51FB40C460F46811A9F41254673
:100BD000861A9D4106D20125ED076F40401ABC419F
:100BE00052187B41210D1E0D8D1BAC467D4D8D4352
:100BF0007ED075056D0D7CD00D05AE46AC431B0354
:100C00001B0B794D52429D41202366469B1B14D3FA
:100C10001746F740381800260090744160462F466A
:100C20000741E41900989D402818664116D4714682
:100C300071189A4025D5012320E093182A466A416D
:100C40005200002B00D0521C1E23203E9B1B002B69
:100C500061DD3541EE1728186641E8D50018764168
:100C60005B1C9A4000D3401C4B05F3181524E3404D
:100C700010D3002B52D071467118D30FC01802D375
:100C8000491C05B0F0BD0123DB079A42F9D14008A9
:100C90004000F6E701225205B21801D1002853D0D6
:100CA0000123CC0ADB029943891E002A08D1020CD9
:100CB00003D0020C0004103902E002460020203963
:100CC0000023550B05D112020823550B01D1520107
:100CD0000D23550C01D112011B1DD50C01D1920021
:100CE0009B1C150D01D152005B1C2025EE1A01E062
:100CF0002CE022E00546F54015439840CA1AE1076A
:100D000069181305C918002ABBDA03204007081820
:100D1000C10FC9070FE071466118B2E7F10740083B
:100D20000843711071444A000CD001235B059A42BC
:100D3000A7D2C90FC9070020A3E74905490D26D14D
:100D4000002001E00028F4D100219AE7284D660038
:100D5000002801D0012100E0002171185F00002A65
:100D600001D0012600E00026BE19224FA94210D86A
:100D7000AE420ED8B14208D001256D05E94206D039
:100D80001946A802414010467BE79C4201D021460B
:100D900077E70020394674E710B50C465C4005D56E
:100DA0000124E4076340FFF70CFF10BDFFF778FE56
:100DB00010BD30B40C465C4004D50124E407634008
:100DC00030BC6DE630BCFCE670B50124E407614040
:100DD0000D465D4002D4FFF763FE70BD6340FFF730
:100DE000F0FE70BDFF0700000000F0FF0000F07F84
:100DF0000000E0FF0000F87FF0B5F94D0C091E0976
:100E00002C402E402F468BB0A7437DD0B543FCD05D
:100E1000002E7AD0002CFCD00D465D40ED0F25430E
:100E2000AC1BFF25AD0464190894C502440DC9022A
:100E30002143500DDC0204430120C0070143044359
:100E4000D2020191200C110C00958C46010423461E
:100E50008B430A9161460904E24D8A430991010AD4
:100E60007D4449198039097805464D4301266D189E
:100E7000F605751B6943C90C640B891C4C43641847
:100E8000B5012C1B250C2E04B4434C434D43210CBF
:100E9000691889090591009DE90701D00121C90759
:100EA00004912C4601996708CD072F434C08059DF6
:100EB000E10B4D432D0C29466646754302950D46C0
:100EC00045432E46029D7D1BB44100950D465D4372
:100ED00001942C0C2F040D465543AE462D0C3D437A
:100EE000029503947546049C2D04641B049406D259
:100EF000029C039D641C002675410395029401AC7D
:100F000070CC009F7D1B01E03EE162E1B441090429
:100F10000095079101940599A4086143090C0C46BA
:100F20004443650BE7040C4666467443A646640BCF
:100F30003C43039502947446049DE4042C1B0494E2
:100F400006D2029C039D641C002675410395029401
:100F500001AC70CC009F7D1BB44101940C465C43F6
:100F60000095650FE7000C465443A646640F3C43CA
:100F7000039502947446049DE4002C1B049406D24D
:100F8000029C039D641C002675410395029401ACEC
:100F900070CC009F7D1BB441AE09AF06049DC90013
:100FA000AD092F43049DA406AD060495079D344367
:100FB00069180791059DE10B4D432D0C29466646A6
:100FC000754302950D4645432E46029D7D1BB44157
:100FD00000950D465D4301942C0C2F040D4655439E
:100FE000AE462D0C3D43029503947546049C2D049A
:100FF000641B049406D2029C039D641C0026754168
:101000000395029401AC70CC009F7D1BB441019408
:101010008C050694079C890A611800950791019C2C
:101020000599A4086143090C0D464543680BEF047C
:101030000D46644665436C0B3C43049FED047D1BE9
:10104000AC4602D20025641C6841009E019D371BFE
:1010500085410846584301950C46460FC500544348
:10106000600F28436546E4002C1B02D20025401C7B
:101070006E41019D3F1AB5412846BD0980062843AF
:101080008446A009BF064E020699A40676180743B7
:10109000079D002068410A99079019430020099B89
:1010A00000906046FF1913434041E20F64003A4349
:1010B000A4460446D71A8C41A04203D901200090CF
:1010C00020463A46C70F941840416246D20F224349
:1010D000644664000494009CBE466400D71AA4468B
:1010E000044602978C417746002F01D1A04204D9D3
:1010F0006046401C8446029A2046C40FA6469418B7
:101100004041049A0546D20F224364466400D31A34
:101110008D417146002901D1A84202D928461A46BC
:10112000641C10430122002800D0164361020020F5
:10113000079B891904465C410223002C02DB4918F5
:1011400013466441089DCE0A2D145D194B056705B1
:10115000E10A2C050D1908993E43C9076940002B87
:1011600008D0934006D30022761C5141002B01D1B8
:10117000760876001C4A002D43DB154241D0AA4375
:101180003FD030460BB0F0BD06180D464D41174C10
:101190007642AC411AD395181C465C41134A6D4205
:1011A000A24113D3012252054C00D4420AD15C0063
:1011B000D4420BD04B4002D592021143E2E74900E2
:1011C0004908DFE75940C90FC90718E0002008495E
:1011D000D8E7054801420DD10342F7D0F2E70000FD
:1011E0000000FF07107801000000F07F0000E0FF22
:1011F0000000F87F114859400143C01241400020CF
:10120000C0E70123089A9B069A4205DC0322520795
:101210008918C90FC907B5E7052252078918074A77
:101220001143D2125140ADE770B515461C46024637
:101230000B4628462146FFF7DFFD70BDFFFFFF7F0D
:1012400030B50346CA02400D1043164D164C0A1520
:1012500002D02043002A06DBAA1A002A12DDD04061
:10126000FF2A0BDC30BD5205520D01D14000400871
:10127000AA1A07D4D0404042FF2A01DD002030BD29
:101280000028FCDD4A00002B01D0012000E00020F6
:10129000101801225205D042F0D8C817C043604050
:1012A00030BD00001E040000000000801F22030C5F
:1012B00002D10F22000402D0030E03D004E000206C
:1012C000014670470002083A030F01D10001121FC6
:1012D000830F01D18000921E002801DB4000521EC6
:1012E000120551184205C012411810467047C10F2F
:1012F000C90700D04042012292071143D6E70121DD
:101300008907D3E7F0B58B4C0F09254689B0BD435B
:101310007BD01D092646AE43FAD00E465E402740DC
:10132000F60F3E43254071D024012142FBD0FF241B
:10133000AD19A4042D1B039501252D05DB02DB0A45
:10134000C9022B43C90A29431E010901040F130FC7
:10135000050121431701880B820391432D098C4617
:10136000A90B1E438A039543B30B9A0396433F0987
:10137000BA0B9403A74302962E467E430497B646C3
:101380004E19D7190C460196544305977E43371BD7
:101390007646BF1B3601B646BE0B3619009676461A
:1013A000BC043719009C01D3641C00946400002F16
:1013B00001D001263443029E049F754366467E4356
:1013C0000496760034196E0034190094029C019E34
:1013D0001C196643751BAE46069465464519059C67
:1013E00005956C43594375460891691A0191049E0D
:1013F00001465143A41B0491611A009C0791E10628
:1014000005D061090122114302E072E06EE061093A
:10141000089D00272C0A2D066918049D7C412A0A84
:101420002D066918019D6241AC0DAD026D18544145
:10143000079A910D920255196141029A64465843E8
:101440005443069B059A5A43121A131B9A0E9B018A
:101450005B187A41010B0005C3185141220A20068E
:1014600044195A419A4200D2491C0120400281424B
:1014700003D315230226F64302E014230326F64382
:101480002020C51AA9401746AF40DA400A4320463B
:101490000399D8400914731819055118039A384351
:1014A000D2075140AC4009D00122944006D300221B
:1014B000401C5141002C01D1400840001E4A93427B
:1014C00012D3012203989206904207DB05204007C1
:1014D00009181A480143C012414004E003204007A4
:1014E0000818C10FC907002009B0F0BD0020F1079E
:1014F000FAE705180C464C4111486D42A04115D33E
:1015000094181A465A410E48644290410ED3012065
:101510004A004005824209D35A00824206D359400C
:10152000C90F084AC90700201143DDE7002006491A
:10153000DAE700000000FF07FE070000FFFFFF7F63
:101540000000E0FF0000F07F0000F87F70B5054666
:101550004800440D124B0020002C0AD0634008D0F4
:101560009A4206DA6642B24203DD12054019514141
:1015700070BD002C08D0002B09D0C90FC907002A64
:10158000F6DB084A114370BDC90FC90770BD284674
:101590000A03104302D00020034970BD284670BDE5
:1015A000FF0700000000F07F0000F87F0121C9055F
:1015B0000123411842001B06D3185B0E0AD0C1104C
:1015C0000722D206891840075242D14201D5520063
:1015D00089187047090208D50146002A03D0C10FB7
:1015E000C9070020704710467047420202D0002011
:1015F00002497047072109050143F4E70000F87F1D
:10160000F0B5FF252D04C609C209FF2704462E4068
:101610000137CB093E4348402A402B400746002A69
:101620006BD0002B69D0AA4267D0AB4265D00028AE
:1016300000DA32460125ED0529432C430902200238
:10164000090AD21A4B0C7F24E31A434C000A7C444B
:10165000E35C7D242404121914145B00A218884250
:1016600001D3521C00E0400049420C465C43241167
:101670005C43DB016415E318040A5C43C502200DDA
:101680000C4644436419250A5D432303EC0C0D46C4
:10169000654300030019EB184C42A34201D35B18C9
:1016A000401CD4052018002B07D05B00C91804D3B8
:1016B000401C002901D1400840003F2189048A4292
:1016C00009D3002A08DC1106090F04D003214907B9
:1016D0004018C00FC007F0BD012241001206891852
:1016E0007F2252069142F6D205214907C84201D510
:1016F0009010F0BDFF20C005F0BD002F00DA32468B
:101700001648AA4207D2AB4205D21902090E17D0D9
:10171000F80FC007F0BDFF2563002D06AB42F9D8D6
:101720004900A942F6D8AB4201D1A942F2D0A94260
:1017300001D1002101E061004908D0050843F0BD56
:101740001102090EFBD0FF200243D005F0BD0A466E
:101750000146104654E70000A27001000000C07F5F
:1017600010B501469E240002CA15A307002A02D024
:101770001843002A04DBA21A002A0CDDD04010BD59
:101780001206120E01D140004008A21A03D4D04024
:1017900040420028F3DDFF2248001206904201D9A2
:1017A000002010BDC817C043584010BD0102C2152B
:1017B00004D00123DB071943002A0ADB9E239A1A6F
:1017C00002D40846D0407047FF22410012069142E1
:1017D00001D900207047C017C04370471F22030C77
:1017E00002D10F2200041CD0030E01D10002083ADE
:1017F000030F01D10001121F830F01D18000921E3F
:10180000002801DB4000521ED20551180212511867
:101810001922904004D3491C002801D149084900ED
:1018200008467047C10FC90700D040420122920705
:101830001143D3E701218907D0E7000010B5FF224B
:10184000C30D134009D05A4007D0914205DA5C42DB
:10185000A14202DDC905081810BDC40FE407002B22
:1018600006D0002A06D0002902DBFF20C005044371
:10187000204610BD4102FCD0004810BD0000C07FD2
:10188000004870479813002010B5FFF7F9FF006873
:1018900010BD10B50446FFF7F3FF046010BD10B58E
:1018A000044600F01DFC0068005DC00602D520461D
:1018B000203010BD204610BD70B504468569006813
:1018C000C10601D5302600E02026C00707D070BD34
:1018D00062683046A1689047206A401C20626D1EF5
:1018E000F6D570BD70B5044685690078C00707D18C
:1018F00070BD6268A16820209047206A401C206269
:101900006D1EF6D570BD09684A0501D540B2704715
:10191000C905FCD500B2704709684A0501D5C0B2B7
:101920007047C905FCD580B2704770B50C460546B6
:10193000012A05D02878800600D5EA69002302E054
:10194000012305E05B1C934202D2E05C0028F9D140
:10195000A869E618C01AA861286AC0182862284633
:10196000FFF7AAFF04E06A682078A968641C904722
:10197000B442F8D32846FFF7B5FF70BDF7B5002590
:1019800075291068009914A611D0FFF7BCFF002834
:1019900002DA404211A608E0009909688A0701D5D9
:1019A0000FA602E0490704D50EA6012501E0FFF7C6
:1019B000B3FF009F0024243704E000F006FF30311D
:1019C0003955641C0028F8D12B4632462146009830
:1019D00000F0D4FBFEBD0000000000002D00000060
:1019E0002B0000002000000011680268006A530507
:1019F00001D5087009E0D30501D5088005E013067C
:101A000002D5C21705C100E0086001207047000040
:101A100001694A1C02610878704700B58FB00291D5
:101A200000210591054901937944039111460490E1
:101A3000684600F02DF90FB000BD0000E5FFFFFF84
:101A40000A681070521C0A6070470CC908399A4223
:101A500002D2531C0B60107070470000F7B50446AB
:101A6000154686B02B487844002703C83E460090B0
:101A7000019111E007986A467100415A02A800F0EE
:101A800084FE411C07D02178890603D5E269391804
:101A900091420ED83F18761C2078800602D5E06966
:101AA000B84206DDAE42E5DB07987100405A0028D7
:101AB000E0D1A069C01BA0612046FFF7FDFE1548DC
:101AC00078445A3803C800900020019116E0410084
:101AD0006A460798415A02A800F057FE0590401C3C
:101AE0000AD0002505E0626802A8A168405D904721
:101AF0006D1C05988542F6D30498401CB0420490B2
:101B0000E5DB206AC01920622046FFF7EBFE09B032
:101B1000F0BD00008E6D0100F7B5D21D0025D20882
:101B200015A6D200F52905CA11D0002A05DA002130
:101B30004042914111A60A4608E0009909688B07C6
:101B400001D50FA602E0490701D50EA601251146D1
:101B5000009F0024243704E000F0CAFA30323A55DE
:101B6000641C02460A43F7D12B46324621460098B0
:101B700000F004FBFEBD0000000000002D0000008E
:101B80002B0000002000000070B504460021243422
:101B900008E05507D2086D0F303565545D072A43BC
:101BA000DB08491C15461D43F3D10468002310A22D
:101BB000250708D5A40601D4002904D0C46901234F
:101BC0000CA2641EC46100F0D9FA70BD10B50446C1
:101BD00021461068FFF7A0FE002302462046FFF7CB
:101BE000D3FF10BDD21DD108C9000CC9CCE700003D
:101BF0000000000030000000F8B50F46018809051C
:101C000002D5224C7C4402E0204C7C440E34054634
:101C10000021243508E016071209360FA65D6E5420
:101C20001E0732431B09491C16461E43F3D12246A8
:101C300004780023240705D5702F06D0002901D091
:101C40000223113200F09AFAF8BD01231032F9E7AD
:101C500070B504460D4621461068FFF75DFE00236F
:101C6000024629462046FFF7C7FF70BDD21DD308A4
:101C7000DB000CCBC0E730B4036820241268234398
:101C800003600823C36130BC0023B5E7F86B010093
:101C9000F3B50446002081B020622046E168884701
:101CA000002872D0252802D06268A168ABE0594FA5
:101CB00000267F442046E16888472028054608DB47
:101CC000312D06D2781920380078002801D006433B
:101CD000F0E7B00701D5042086430020E061074605
:101CE000A0612A2D0AD028460EF098FA002827D0A5
:101CF000B8000019303D0090856119E00298BA00E3
:101D0000121902C8916102902046E1688847012FAC
:101D1000054617D1E06900281FDA202086431CE021
:101D200000980A2180694843009940193038886139
:101D30002046E168884705460EF070FA0028EFD18A
:101D4000012F0AD02E2D08D12046E168884705468C
:101D5000202006437F1C022FC3DBA069002803DA82
:101D60004042A06101200643F00701D010208643C5
:101D70006C2D0BD0682D09D04C2D3CD06A2D38D05D
:101D8000742D38D07A2D36D016E040E0E1682F4629
:101D900020468847B842054609D16C2F29D001203A
:101DA0008002E168064320468847054604E06C2F20
:101DB0001DD0FF2001300643002D28D02846413891
:101DC000192803D80120C00206432035204626608A
:101DD0002946029A1646FEF701FA002810D001287B
:101DE0000BD0F61DF008C0000830029055E74020E7
:101DF000E1E78020D5E70020D3E7361D02964CE7C7
:101E000062682846A1689047206A401C44E7206A1F
:101E1000FEBD0000726B01000FB4002300B589B055
:101E20000CA900910B99CB60224B7B44224A7A4447
:101E30000792042206930192204A0292204A7A4491
:101E40006B4608920246002015F024FF09B008BC3A
:101E500004B0184770B5064615460C46324686B0A3
:101E60000020C04301900020049004A8009102913A
:101E70006946FFF7D1FF024604982118002D05D0CE
:101E8000002801D0084600E0204628600498002879
:101E90000DD0002A02DD0098884208D03246081B87
:101EA0006946019004A800940294FFF7B5FF06B0BC
:101EB00070BD0000730800008F080000FFFFFF7F67
:101EC00029030000F7B50F460026009C2578641C06
:101ED000002D05D000F004F90068405DC007F5D181
:101EE0002B2D02D02D2D18D0641E3946029A204683
:101EF00000F0F8FB002F04D03968A14201D100990D
:101F000039607105022400290BDA4042002803DD04
:101F1000FFF7B6FC0460A007FEBD01208002064367
:101F2000E3E70028F8DAFFF7ABFC04600048FEBDE9
:101F3000FFFFFF7FF8B5224C4E00069DA6420AD84F
:101F4000A64201D1002806D15E00A64203D8A642CF
:101F50000AD1002A08D00D24240425422CD0294679
:101F6000002000F046FCF8BD0C461C430CD49942FE
:101F700002D0EFF30080F8BD904202D0EFF3008072
:101F8000F8BDEFF30080F8BD09242407E5008B427B
:101F900006D0EFF30080A043591A06D2284304E08C
:101FA000101A05D3EFF30080A04380F30088F8BD3A
:101FB000EFF30080A043F1E7009500F031FCF8BD9D
:101FC0000000E0FFF8B5064601270E43FF05092291
:101FD0000546F41B12070D43D300F619002D1CDB38
:101FE000002E09DB002C24DB401A02D3EFF3008023
:101FF0000AE0EFF300800BE0F84234D4F94232D427
:10200000401A03D3EFF30080904303E0EFF3008026
:102010009043184380F30088F8BD002E11DA002C9D
:1020200007DA081A02D3EFF30080EDE7EFF3008040
:10203000EEE7001A02D3EFF30080E5E7EFF300804C
:10204000E6E70124450024066D42A5420BD94D0068
:102050006D42A54207D9081A02D3EFF30080D3E7F7
:10206000EFF30080D4E7024A00F004F8F8BD000066
:102070000900100410B5FF231B0644009C421DD824
:102080004C009C421AD80346124A0B4307D4401A0C
:1020900002D3EFF3008010BDEFF3008010BD081AEB
:1020A00006D2EFF3008001219043C907084302E004
:1020B000EFF30080904380F3008810BD0D231B04D4
:1020C0001A4204D01146002000F093FB10BD00F02E
:1020D00031FC10BD000000900048704798130020AC
:1020E00010B500F04FFC001D10BD00BF19570100D6
:1020F0000B4670B5024689078008084319469D08BB
:10210000141AA94125090807054308092C19484153
:10211000250A01060D43010A2C194141200C0D042A
:1021200028430D0C00194D41002140194D41C008B4
:1021300069070843E908840F8D00254384002418AB
:102140004D4124196D41121BAB4107E00925ED43B8
:102150002C11521963410024401C61411C460A2580
:102160000026551BB441F1D270BD10B50446FFF7EF
:10217000B7FF0068005DC007C00F10BDFFB5044683
:102180000D4681B0243000902168880604D51022C5
:10219000E0699143216000E00120A84201DD471B76
:1021A00000E000270498A1697A191018081AA061A4
:1021B0002078C00602D42046FFF77EFB002608E008
:1021C00003986268A168805D9047206A401C761C75
:1021D000206204988642F3DB2078C0060AD52046A8
:1021E000FFF76AFB06E06268A16830209047206A2A
:1021F000401C206238467F1E0028F4DC07E000986F
:102200006268A168405D9047206A401C20622846B1
:102210006D1E0028F3DC2046FFF764FB20780006E3
:1022200002D5022005B0F0BD0120FBE77047FFB5E5
:102230000C461E468FB003CA089009914F007D0DD1
:1022400000D16D1E002108460020C0460321099AD6
:1022500089050840002A03DA8200801840080840F7
:10226000800D01280A9002DD0020C0430A900898E2
:1022700007430DD0F048F14928184843071418982F
:1022800000281DD07542291E1DDD0A9842421BE020
:102290001898012802D00020302104E00020F243E9
:1022A00005E02154401CB042FBDB30460022189B65
:1022B000002121540F998B600A60486013B0F0BD73
:1022C000BD1B6D1CDFE70A9A002900DA69420BA8E2
:1022D00000F040FE0BAB07CB03AB07C3089909988E
:1022E00000F0A4FE6B4607C30146D5480918002D2F
:1022F00000910BDDD24903980A9A49424018002305
:1023000003A90390684601F001F908E003990A9ACD
:102310000023081803A90390684601F0A1F86B4652
:1023200007C30004000C03D00020C043410800E0B4
:102330001046189A002A03D00022009215461EE08B
:10234000751E05D4FFF7D4FE303262556D1EF9D5E7
:1023500001220843079602D000227F1C04E0207867
:10236000302801D100227F1E002A069787D01EE068
:10237000112D07DAFFF7BCFE303262556D1C0246A4
:102380000A43F5D1084303D00098002819D00EE085
:102390000021681E05E0235C625C63542254401EE9
:1023A000491C8142F7DBA81B401E07950690079A3F
:1023B00018990020A0540F98079B069A81600CC0C2
:1023C0007CE711260020189059E7D21DF0B50D4684
:1023D0000446D10893B0C90003C90C900D910DF0CB
:1023E0000BFE02460D98C00F01D02D2007E020689B
:1023F000810701D52B2002E04007C00F4001032ACE
:102400000F9001D0072A05DB03462946204600F03D
:10241000BDFA0EE12078800601D5E76900E00627C5
:102420002846652D04D0662814D0672D69D12DE08B
:102430000020112F009001DB112300E07B1C0CAA6F
:1024400003A910A8FFF7F3FE1199002610987D1C30
:102450000E9142E001203B460CAAC0070B900120E0
:10246000009003A910A8FFF7E2FE119D12981099A1
:10247000002600280E9501D1781C0D18781B02D477
:1024800046427D1C761EE81B00903AE0012F00DAE0
:1024900001270020112F009001DD112300E03B46B1
:1024A0000CAA03A910A8FFF7C2FE11993D46109887
:1024B00000260E91217809070BD40E99A94200DA63
:1024C0000D4603A9012D04DD4A19203AD27F302A96
:1024D00006D0B84201DA011D04DA012100910FE0B3
:1024E0006D1EEFE7002802DC86192D1A03E0411C5F
:1024F000A94200DD0D46801B401C00900120C00752
:102500000B902078000705D40098A84202DB002039
:10251000C043009069460020C8720B98012102AFA9
:102520000337C907884225D0022010902B20119034
:102530000B9800280BDA40420B902D20119006E0FA
:102540000B9800F042F930317F1E0B9039701099D2
:10255000481E00291090F3DC0B980028F0D1119848
:102560007F1E38702088000501D5452000E06520D9
:102570007F1E387001A8C01BC01D0B900F9800284B
:1025800000D0012041190098C01709180B980818AD
:10259000A169081A401EA0612078C00602D4204616
:1025A000FFF78AF90F98002805D06268A168904764
:1025B000206A401C20622078C00625D52046FFF7FF
:1025C0007BF921E0002E07DB0E98B04204DD03A862
:1025D0006268805DA16802E06268A168302090476F
:1025E000206A761C401C20620098401E0028009043
:1025F0000AD100F0C7F9C06862680168405CA16850
:102600009047206A401C206228466D1E0028D9DCB5
:1026100007E062683878A1687F1C9047206A401CF8
:1026200020620B99481E00290B90F2DC2046FFF730
:1026300059F9032042E6000001FCFFFF104D0000A5
:10264000E1DFFFFF10B54369002B02D0C046C04652
:1026500001E0FFF76AF9012010BD1278014624312C
:102660000A7000224A700122ECE711680022D2436E
:10267000E8E710B54369002B02D0C046C04601E030
:10268000FFF7ECF9012010BD128801462431828445
:102690000022C2840122ECE711680022D243E8E75D
:1026A0004268002A08D001680B78491C002B03D02F
:1026B000521E06C0184670470121C160881E70472F
:1026C0004268002A0BD0C3680168002B07D18368D9
:1026D0008B4204D0491E521C06C0002070470020C7
:1026E000C0437047F7B5154682B00027029C20789A
:1026F000641C0197302802D0002D15D015E02078F9
:102700000127641C782804D0582802D0002D09D055
:102710000BE0002D01D0102D07D1207800271025C7
:10272000641C02E0082500E00A250026009610E05F
:10273000009901276943081829467143020C80B2A9
:1027400000908E183804864201D301200190207831
:10275000641C294600F05EF90028E9DA0398002895
:1027600005D0002F01D0641E00E0029C0460019897
:10277000002806D0FFF784F802210160C81E05B0CA
:10278000F0BD009930040843F9E770B516460C46D1
:102790000546FFF7A5FC0368FF200230C05C012856
:1027A00007D0FF2C0ED8185D00280BD001202C700C
:1027B00070BDFF333246214608331868C3182846D7
:1027C000984770BD0020C04370BD01468008081ABC
:1027D00002091018020A1018020C1018C008820012
:1027E00012185200891A01E0401C0A390A29FBD24A
:1027F0007047C80212D54803400F002804D0C80310
:10280000C043012188407047EFF3008000010009B8
:1028100003210907084380F30088704700207047B0
:1028200010B500200249029A00F0C8FE10BD000059
:102830000000F87FF0B53D4B02460C461C400020DE
:10284000002C63D03A4D8B4366D000296BDB0B0D17
:102850001D05A94301252D0529430124FD33E3402E
:1028600001D392184941FF3381339C468B02940D6A
:102870000121234389074C42920200271B198C1027
:102880005D1A04D42D1B02D42B46650049199218F9
:102890005B416408F4D15C1A08D40125ED07EE17FA
:1028A0005519744102D42A462346491C94185B41A9
:1028B000012292071D46E61B8D4106D4B61A8541BA
:1028C00003D42B46550034467F1924195B41520826
:1028D000802AEFD1234300D0022338460A22D04079
:1028E00001D3012213438A0510436246890A120567
:1028F0008918002B09D00122D34002D30022401CAA
:102900005141002B01D140084000F0BD0B0313439F
:1029100007D0C90FC907F0BD0803104303D1002930
:1029200001DB1046F0BD00202946F0BD0000F07F1D
:102930000000F87F10B5024800F040FE10BD000016
:102940000000C07F7546FFF7C7FBAE46050069462D
:102950005346C008C000854618B020B5FDF7ECFB13
:1029600060BC00274908B6460026C0C5C0C5C0C522
:10297000C0C5C0C5C0C5C0C5C0C5403D49008D4625
:102980007047000000487047B8130020F8B51F4694
:10299000044601230068DB02032601461840072A8B
:1029A00005DB002801D017A506E017A504E00028E4
:1029B00001D016A500E016A5102081432160A06972
:1029C000C01E002FA06101D0401EA0612046FEF76E
:1029D00073FF002F09D038466268A1689047206ACB
:1029E000401C2062C01C206206E0206AFAE7626890
:1029F0002878A1686D1C9047761EF8D22046FEF715
:102A000071FFF8BD4E414E006E616E00494E4600AA
:102A1000696E66003A2800D23038202302469A4375
:102A2000412A01D310463738884201D30020C043E1
:102A300070470000FFB58BB00878FF2806D0491C0E
:102A40002D2805D000230020009009E000200EE092
:102A50000123F8E7009A0A2462438018491C009079
:102A60000878FF28F6D1002B02D000984042009051
:102A7000002503952C460D9800782D2801D02B2891
:102A800015D10D99491C2D280D9102D000200390DD
:102A90000DE00120FBE7401C214600270A223B46AF
:102AA0000D90284600F0B9FD35183C464C410D9874
:102AB0000678FF2EEFD1002108460020C04603997A
:102AC000002902D08100401840080002860F012E24
:102AD00001DD0026F6430E9900984718284620434A
:102AE0000BD0FF20F530C7421ADA0398C1070B98C4
:102AF000002E41600ADD012009E00398C1070B9810
:102B000041600B99002008600FB0F0BD00200B99C8
:102B10000860FEF7B5FE02210160182108461AE0A0
:102B2000FF20F530874219DD002E02DAFC48784498
:102B300001E0FC48784406C80B9806C00B9803993E
:102B40004068C90708430B994860FEF799FE0221C7
:102B50000160142108460020C046D5E70021084640
:102B60000020C04639000A9001D5724200E032468A
:102B7000002900DA794207A800F0ECF907AB07CB8F
:102B800004AB07C3E848009000200146214304D16C
:102B90002C460546E44920390091210C09040143E3
:102BA00006D1290C24040C4300992D0410390091FE
:102BB000210E0906014306D1290E24020C43009977
:102BC0002D0208390091210F0907014306D1290F71
:102BD00024010C4300992D01091F0091A10F8907C1
:102BE000014306D1A90FA4000C430099AD00891E32
:102BF0000091E10FC907084304D100986D196441A1
:102C0000401E0090002F0295019406DD3246684672
:102C1000012304A900F032FC05E001233246684696
:102C200004A900F080FC044603980D46002802D059
:102C30000120C0074440002108460020C0460A99F0
:102C4000BA4E48400007800F07D160004008284373
:102C500003D06000400DB04214D1FEF711FE0221F6
:102C600001606000400DB0420CD1B148784406C804
:102C70000B9806C00B98E10FC907406808430B99F1
:102C8000486041E70B9844600B9805603CE7FFB54E
:102C90001F4695B0002000250C909E685C68ED43AF
:102CA0001390FFF76FFEC0680168405C1490B9692B
:102CB00016986D1C88470A90396A88470028F6D113
:102CC0000A98401C0AD00D20C0018443002E12DD5A
:102CD0000A982B2809D02D280DD103E00020C043ED
:102CE00019B0F0BD012080020443B96916986D1C2B
:102CF0008847761E0A90600504A901D52D2000E0C2
:102D00002B206A46491C107410A8002E0D910B90C0
:102D10003BDD0A98692805D0492803D06E2801D0E8
:102D20004E281DD13B46039002200296179A169911
:102D3000C0430095019414F0BDFFC11CD0D10FE039
:102D4000B96916986D1C88470A900120761E4002CA
:102D50000443179805601398401C002E139014DD4F
:102D60000A983028ECD0782801D058280DD1139833
:102D700001280AD13B460296179A1699001F009522
:102D8000019414F08FFFC11CAAD114990A988842AB
:102D900046D18020044308E00C981799401E0C90FF
:102DA000012040020443681C0860B9696D1C169834
:102DB000761E884730280A90EED031E01499884278
:102DC00005D1200603D480200443761E1EE00A9815
:102DD0000DF024FA002826D0012008A9400204435F
:102DE0000D980331761E88420BD20A980D9930381F
:102DF00008700D98401C0D90200607D50C98401EB9
:102E000003E0200602D40C98401C0C90A00502D5CB
:102E10001799681C0860B96916986D1C88470A9054
:102E2000002ECBDC59E0002E57DD0A98652801D032
:102E3000452852D1A00550D50320B969000284432A
:102E40006D1C1698761E8847002E0A900CDD2B28E4
:102E500004D02D2808D1FF2001300443B969169809
:102E60006D1C8847761E0A90E00501D52D2100E0F3
:102E70002B210B9801700B98401C0B90009025E0C3
:102E8000012012A9400204430B980131761E8842AA
:102E90000ED20A980B9930380006000E087003D144
:102EA00000990B9888420AD90B98401C0B9006E0B9
:102EB000E00501D51F4801E01E4840420C90B96969
:102EC00016986D1C88470A9017980560002E04DD3F
:102ED0000A980DF0A3F90028D2D1F969169888470D
:102EE0000D99FF2004AA08700B99087000200E901D
:102EF0000F900C9B10A90EA8FFF79CFDA00502D413
:102F00000120C043ECE62420044215D0E0071FD185
:102F100038680F9A0E99031D3B60006806C017E0E1
:102F2000BECD0100B0CD01003E400000FF07000013
:102F300078CC0100F1D8FFFF0EA968460DF0F8F833
:102F4000E00705D13868009A011D39600068026009
:102F50002846C5E6F7B516468AB0334878446C462D
:102F600003467C33C06F5A689B680DC42E48784472
:102F7000763003AC0DC80DC43720C00108183721C6
:102F80001B30FDF765FC05460C46803D1B3C02D519
:102F90006442012000E000200027099010E0E007D3
:102FA0000CD00C2020497843794432464C394118E2
:102FB0006846012300F054FA6B4607C364107F1C77
:102FC000002CECD1184F7F442E3F16E0E80712D0BA
:102FD0002001C0190EC80691089307920068F042BC
:102FE00001D1981908903246012306A903A800F0E0
:102FF00037FA03AB07C36D10641C002DE6D10998A6
:10300000002806D032466946012303A800F07EFA64
:1030100005E001233246694603A800F021FA0A9B25
:1030200007C30DB0F0BD0000E858010003464000A2
:103030000A4610B5400D0BD00121C9070F24A40288
:1030400000191C0364082143540D2143D20207E0F8
:1030500000210120F2E7D40F490021435200401E15
:103060000029F8DADB0FDB07184310BDFFB50D466A
:10307000144685B0486851680CF0A6FF0091019095
:10308000A868A1680CF0A0FF02910390A86861688D
:103090000CF09AFF029A12188242029201D2012089
:1030A00000E00020019A0B18D2180028019202D0EB
:1030B0008A4202D903E08A4201D2012000E00020C6
:1030C0000099081800906868A1680CF07DFF029ACA
:1030D00012188242029201D2012000E00020019ADF
:1030E0000B18D2180028019202D08A4202D903E0BC
:1030F0008A4201D2012000E00020009908180090C7
:103100002868216840004900400849084018FA49E9
:10311000471814E001994000C90F08430090019836
:1031200002994000C90F084301900298039940009A
:10313000C90F08430290039840007F1E0390009837
:103140000028E7DA0898002801D0EC4E00E00026BD
:10315000B74201DA012000E00020002804902AD0C4
:10316000F71BF806C00E15D0029B2021091A039AFE
:103170008B401A430392029A019BC2408B401A4330
:103180000292019A009BC2408B4000991A4301921F
:10319000C14000917B110DD06F460320C11A03D5A9
:1031A00000218200B95003E08A008100BA587A50A9
:1031B000401EF3D5374603980299002800D001201D
:1031C000014308980291002808460CD0002800D03E
:1031D00001200199019A490508430121D20AC90237
:1031E000D202019200E001210E9B0122D207012BA5
:1031F00002D0002B03D013E0002807D120E090423A
:1032000004D890420CD1019B0B4209D0019B591864
:10321000019105D10099491C009101D17F1C0092B8
:1032200000280DD0102108460020C0460498002830
:1032300006D00F98002803D0082108460020C04679
:1032400028682168019B009A4840C10F0598C9076A
:1032500039430EC009B0F0BDFFB587B0099A089890
:1032600008995368926840688968964600220393DB
:1032700017469446089A12685300099A5B08126828
:10328000520052089A1A9E4BD4180A9A002A01D06A
:10329000352200E0402206920022012315460492C6
:1032A000DB07059324E0002D05D175460346039EF8
:1032B0004D1BB34109D375466646039B491B049DCC
:1032C0009841059B7519AC465F4163463B4308D066
:1032D000059B049EDD0776082E435B080496059344
:1032E00001E0521E641EC50FED0749184041521CF3
:1032F000069B9A42D7DB002D04D17546039A6B1AC0
:10330000824101D203200CE0039A0B466B404240FD
:10331000134303D0014303D0012002E0022000E068
:103320000020614601910021009702910A9900292D
:1033300005D0614640020143704B019102E08007D5
:10334000002302909C4201DA012000E000200700E7
:103350003AD01A1BD006C00E15D0029D2021019C28
:10336000091AC5408C402543029C8C4000D00124A2
:103370002543019C0295009DC4408D4000992C433B
:103380000194C140009154111DD06D4602210022CC
:1033900002290CD10320001B07E0002804DB860073
:1033A000AE59002E00D00122401C0328F5DB081B7B
:1033B00002D588002A5004E08000285810438A0073
:1033C000A850491EE3D51C460A98002802980CD044
:1033D000002800D001200199019A490508430121E4
:1033E000D20AC902D202019200E00121109B0122FF
:1033F000D207012B02D0002B03D013E0002807D105
:103400001FE0904204D890420CD1019B0B4209D09E
:10341000019B5918019105D10099491C009101D1D6
:10342000641C009200280CD0102108460020C046E1
:10343000002F06D01198002803D00821084600204C
:10344000C04608980999019A009B0068096848409D
:10345000C10F0798C907214382600AC00BB0F0BDB5
:1034600000B585B0019300920A460146002302A8E8
:10347000FFF7FCFD02A807C805B000BDFFB50A466E
:103480001F4685B00799019301230091014602A8C8
:10349000FFF7ECFD02990398049ECA0F4900D2077A
:1034A00000920F22490892028C1A0021002800DBAA
:1034B0000C46450013486D08844214D3079A002A2D
:1034C00004DA441E0026104DF64302E004460D4681
:1034D0000E46102108460020C046002F03D00421CC
:1034E00008460020C0462005E90A08430099084321
:1034F0006905F20A1143ADE602C0FFFF013C00007E
:10350000FF3F0000FF070000FFFFFF7F00B585B011
:10351000019300920A460146002302A8FFF79CFE91
:1035200002A807C8A8E7FFB50A461F4685B0079955
:10353000019301230091014602A8FFF78DFE029935
:103540000398049ECA0F4900D20700920F2249082F
:1035500092028C1A0021002800DB0C46450011481D
:103560006D08844214D3079A002A04DA441E002608
:103570000D4DF64302E004460D460E461021084666
:103580000020C046002F03D0042108460020C0467A
:103590002005E90A0843009908436905F20A114326
:1035A00058E60000FF070000FFFFFF7F10B504464C
:1035B000C046C0462046FCF79FFE10BD10B50C4625
:1035C0001107090F092904D00A290AD008290CD1AA
:1035D00004E011460820FFF70CF906E0510606D575
:1035E00001E0510601D50120C007214610BDD106DA
:1035F00007D501010909CC084907000E000604435C
:1036000009E0410F20024907000A0143200E00068D
:103610001D22D14101430846E7E74343514330B5FA
:103620005C18010C130C0D4692B25D4380B25143FD
:103630002C19054655430A0C09044D19624158439B
:10364000010C00044019514130BD0000014918200F
:10365000ABBEFEE72600020070470000FFB51F4624
:1036600089B0139812994005C00FC007059000203B
:10367000079005460446461E049002903C20491CD3
:1036800012910690B9690A98884703901498401ED1
:1036900014901498002841DD03982E2816D010218C
:1036A000FFF7B8F9002834DB0121049107990143A1
:1036B0001AD0069900290CDB069AC11700F006FA09
:1036C000054306980C43001F069006E00120029077
:1036D0000EE0002801D00120054301200790029848
:1036E000002805D1361D03E00298002800D0361FBF
:1036F0001298401C1290B9690A9888470390149850
:10370000401E149004980028C3D00B9912980860AA
:10371000BFE70398702808D0502806D0F9690A98A6
:1037200088470498002815D051E00020039001201C
:103730000290049800280AD01298401C1290B9698F
:103740000A9888471499491E0029149106DCF969E2
:103750000A9888470120C0430DB0F0BD2B2804D043
:103760002D280DD10020C04302901298401C1290C9
:10377000B9690A9888471499491E00291491E6DD11
:10378000411CE4D00A21FFF745F90028DFDB03994B
:103790000A225143081803901298401C1290B969EC
:1037A0000A9888470A21FFF735F914990B9A491EA0
:1037B0001491129911601499002901DD0028E6DAAC
:1037C000F9690A988847029903984843861913981B
:1037D0002421084004902846204304D0A10F8907E3
:1037E000090002D006E005989BE0A90FA4000C4355
:1037F000AD00B61EE10FC907080002D16D19644182
:10380000761E0498002803D00B2002905D4803E048
:10381000282002907D20C0438642039007DA811B56
:10382000029808184128029001DD41200290029A76
:1038300001200021521E00F049F9024628400B46A3
:103840002140084301D0012000E000200790002023
:10385000521EC04343412A4023401A4301D0012055
:1038600000E0002007990690014352D0002108464D
:103870000020C0460321059A89050840002A05D08A
:1038800082008018C20F10184010084080150128CF
:1038900002DD0020C04301E0012815D0401C38D0D3
:1038A0000798002835D0069800280DD1029A0120EB
:1038B000002100F00BF928402140084301D00120ED
:1038C00000E00020002824D0029A0120002100F00E
:1038D000FDF8034640198C4661412A1A8C410FD3EA
:1038E0000298402807DD0498039E002801D0343E4A
:1038F00002E0173E00E0761C01240025E40708E002
:103900005B1E62460024E4436241DD43D44305402C
:103910000C4003980121081AB04206DA1A490598AA
:1039200008430190002000900EE060006205010B4A
:10393000E80A1043059A009068460A4313490A436F
:10394000314601920CF060FC049800280AD01398CC
:10395000C00714D13868019A0099031D3B600068C4
:1039600006C00CE002A869460CF0E2FB1398C00701
:1039700005D13868029A011D39600068026012980A
:10398000EAE6000002FCFFFF0000F07F0000F03FCD
:10399000FFB51D4687B01198484A109C129E4005FD
:1039A0001399C00F761EC0070243019200220092B5
:1039B000FF22D2051043202291434929059003D0CC
:1039C00017464E2928D04FE03DA002AA0BC8012778
:1039D0000BC2A9690898641C8847761E014607D463
:1039E00002A8C05D002803D02022914381420AD062
:1039F000E96908988847032F36D0082F34D0012072
:103A0000C0430BB0F0BD7F1C032F01D0082FE0D1C5
:103A10000999601C0860DCE7A9690898641C88475C
:103A2000761E2DD4B84341282AD1A9690898641C70
:103A30008847761E24D4B8434E2821D1A969089816
:103A4000641C884701990122D20411430191059910
:103A5000D200114305910999761E0C6001D42828E3
:103A600006D0E969089888471198C00712D023E06A
:103A7000A9690898641C8847761E01D4002803DAD7
:103A8000E96908988847BAE72928F1D10998641CA0
:103A90000460E9E711982421084207D02868019AB8
:103AA0000099031D2B60006806C005E02868059991
:103AB000021D2A60006801602046A2E70000F07F36
:103AC000494E46494E4954590000000010B5202A7D
:103AD00004DB0146203A9140002010BD9140202394
:103AE0009C1A0346E3401943904010BD70B58C18F2
:103AF0000578401C6B075B0F01D10378401C2A112D
:103B000006D10278401C03E00678401C0E70491C68
:103B10005B1EF9D12B0705D40023521E0DD40B7068
:103B2000491CFAE70378401CCB1A921C03E01D786D
:103B30000D70491C5B1C521EF9D5A142D8D3002040
:103B400070BD10B582B00024019441784A030192FF
:103B50008178002901D0002101E0012109031143EE
:103B600001910078002801D00120C0020843019093
:103B7000402001210090982301AA084607F02FFC5D
:103B8000002808D0302001210090982301AA019438
:103B9000084607F024FC02B010BD000000B583B059
:103BA0000C49FDF72DFD0C4A0C4990420EDC884271
:103BB0000ED2FDF7FBFD01903020012100909823EB
:103BC00001AA084607F00BFC03B000BD0248F0E76D
:103BD0000020EEE70000203800FF7F4700008080D3
:103BE0008030C160704780220029016801D01143F4
:103BF00000E091430160704710B5002001221206D9
:103C00000123014608F02AFB10BD000010B5042175
:103C10000348FFF7E5FF03490120087010BD0000CD
:103C200000000140D000002080308068084000D0B3
:103C300001207047F1B5002082B0214D064600906A
:103C40000024204F2C70234601220321384600F027
:103C5000CFF900231A460221384600F0BAF90121B3
:103C6000384600F0DBF9287800280DD1FF2791377E
:103C70000120641C0EF0C6FBBC4202D1002003B040
:103C8000F0BD28780028F3D00E48006B761C0105A3
:103C90000098090D08180090052ED1DB3146FCF77D
:103CA000C9FDFDF7C7FDFDF781FC074A074BFDF78E
:103CB00029FBFCF7B7FE02990860012003B0F0BDB4
:103CC000D0000020000001406666666666664A3FD6
:103CD000F0B50446002087B0049003900290064699
:103CE00001900025994F2B463D70042203219848EE
:103CF00000F07EF900231A461946954800F069F94C
:103D0000012200231146924800F063F902220023A9
:103D100011468F4800F05DF90322002311468C48BC
:103D200000F057F901218A4800F078F93878002826
:103D30000ED1FF27913701206D1C0EF063FBBD42B1
:103D400002D1002007B0F0BD804800780028F2D0F2
:103D50007F480499026B1205120D8918049103998A
:103D6000426B1205120D891803910299826B12059C
:103D7000120D891802910199C06B761C0005000D87
:103D800008180190052EACDB31460498FCF752FD73
:103D9000054631460398FCF74DFD039031460298E5
:103DA000FCF748FD029031460198FCF743FD019075
:103DB0002846FDF73FFDFDF7F9FB664F664D3A4695
:103DC0002B46FDF79FFAFCF72DFE644913F062FEC7
:103DD00020600398FDF72EFDFDF7E8FB3A462B46E1
:103DE000FDF790FAFCF71EFE0090FDF7DFFB3A4668
:103DF0005B4BFCF7E9FF05460E465A49009813F065
:103E000049FEFDF7D3FB2A463346FCF7F5FFFCF7E6
:103E100009FE5449FDF7F4FBFDF7C8FB0EF07CFEEC
:103E20000022514BFCF7E8FF504A514BFCF7B4FF1E
:103E300002460B4600204F49FCF7DEFFFCF7F2FD7F
:103E4000FDF7B4FB3A464C4BFCF7B3FFFCF7EAFD39
:103E50003F21090613F084FD484E494DB04201D878
:103E6000A84251DDB04201D9022000E001202075B6
:103E70000020E0600298FDF7DDFCFDF797FB354A76
:103E8000354BFDF73FFAFCF7CDFD3E4913F002FE3E
:103E90003D49FDF7B5FB3D49FDF7B2FB3C49FDF758
:103EA000AFFB0746A0603B4B3B4A39460A2008F06F
:103EB00045F90146384613F0EDFD60600198FDF7C5
:103EC000B9FCFDF773FB234A234BFDF71BFAFCF704
:103ED000A9FD3249324F88421DDAFDF767FB3A46A9
:103EE000304BFCF771FFFCF79DFD264913F0D2FD26
:103EF0000221C943FDF7A2FCF9074840B04206D9A8
:103F00000120607500201DE000212175B1E700212E
:103F10006175206117E0FDF749FB3A46214BFCF73C
:103F200048FFFCF77FFD174913F0B4FD0221C94398
:103F3000FDF784FCA84203DD02206075256102E0E4
:103F4000002161752061012007B0F0BDD000002084
:103F5000000001406666666666664A3F00004040B3
:103F600066660A400000204100F4AA4083DBB5DC0D
:103F7000E1796B3F0000F03F66127140000020C203
:103F80000000FA4200007A44000048420000484322
:103F90000AD7A33B70030020480300209A99193FD9
:103FA000333333333333E33F10B504210348FFF792
:103FB0003BFE012801D1FFF729FE10BD00000140A2
:103FC0008030002A026801D00A4300E08A43026080
:103FD0007047930830B49B001B1858689207D40EA2
:103FE0001F22A2409043A1400843586030BC704754
:103FF0005B1E12021B04FF3A013A13430B43016894
:10400000802211400B4303607047CA06D20E02673C
:104010004909490141677047016270470029416FB2
:1040200002D00122114301E049084900416770476D
:10403000F3B5C1B004A80CF0C3FB002836D1009042
:10404000419901900290039008786C4620700120FD
:104050004D780723C217920F121892089200821A05
:1040600092008710D2198E7812191570421CD7173A
:10407000BF0FBF18BF08BF00D21B9700421C921091
:10408000CD78BA181219801C891C5B1E1B0616708D
:104090001B0EDFD141982146C07BE0734298002877
:1040A00004A807D00CF06AFA002807D00020C0430B
:1040B00043B0F0BD0CF0DEF80028F7D141990020A4
:1040C0000823491EC217920F121892089200821AF2
:1040D000920085105219121912784A70421CD51795
:1040E000AD0FAD18AD08AD00521B9500421C9210EB
:1040F000AA18121912788A70801C891C5B1E1B0674
:104100001B0EDFD1002043B0F0BD000010B4002230
:10411000072801D9012208389300064A9B181A681B
:1041200080000F248440A24381401143196010BCD9
:104130007047000000200240F0B5374BC000C618A1
:1041400093B048080E9010010C9088080690100259
:104150000B90C808059010030990080904901004FA
:10416000089048090A9010050790880986461006AD
:104170000390C80900258446100702900020FF2400
:10418000AC4003460C4240D00124AC40214201D057
:104190000F2013460E9F274203D0F02738430C9F71
:1041A0003B43069F274204D00F273F0238430B9F13
:1041B0003B43059F274204D00F273F033843099F05
:1041C0003B43049F274204D00F273F043843089FF6
:1041D0003B430A9F274204D00F273F053843079FE0
:1041E0003B437746274204D00F273F063843039FBF
:1041F0003B436746274204D00F2424072043029CF8
:104200002343346884431C4334600835361D092D2C
:10421000B4DB13B0F0BD00002020024070B50026D2
:1042200001246403324601231146204600F06CF954
:104230000F4D284600F08AF96E60E6202860284677
:1042400000210C4AF325ED00535C037353185B788F
:104250000373891CA942F7DB856800F077F92046D3
:10426000324620430023114600F04EF9284670BD27
:1042700000A00840EC02002070B5094D0024287809
:10428000072806D0082807D0092807D00A2805D013
:1042900070BD01F055F901E001F004F92C7070BD1A
:1042A0001F01002006480178052902D00078042863
:1042B00005D104484168002901DD491E416070476D
:1042C0000012002070020020F8B502F0D9FF0500AE
:1042D00050D0524C7F26207800275149F6050028FF
:1042E00009D0012847D002284ED0032842D1607857
:1042F000002843D18AE0A068B04207D1286E13F0AD
:10430000C9FBFDF72DFA6070012055E0FDF74EF96D
:10431000444A454BFCF740FDFCF784FBA060B042EB
:1043200001DDA66003E0FF21C905C84271D26E6DB0
:10433000286D314613F03EFC05466660A068FDF727
:1043400035F93A4A3A4B10F011FF06460F46284617
:10435000FDF72CF932463B46FCF7D4FF05460E46E6
:104360006068FDF723F92A463346FCF715FDFCF794
:1043700059FB6060F8BD6078002802D0401E607074
:10438000F8BD02202070F8BDA0684200120E0CD0CB
:10439000FDF70CF9234A244BFCF70BFDFCF742FB1D
:1043A000A060B0420ADDA6600CE0686E13F072FBFC
:1043B000FDF7D6F9607003202070F8BDFF21C90514
:1043C000C84228D26F6D286D394613F0F3FB0646BC
:1043D0006760A068FDF7EAF8144A154B10F0C6FEB6
:1043E00005460F463046FDF7E1F82A463B46FCF706
:1043F00089FF05460E466068FDF7D8F82A46334621
:10440000FCF7CAFCFCF70EFB6060F8BD2770F8BD36
:10441000FFE7A7608BE7A760D4E70000B0020020A9
:10442000000048427B14AE47E17A943F9A999999EB
:104430009999034003498968014201D001207047DE
:104440000020704700800840F0B44209254B9200DC
:104450000021D2182E2800D10221C0061368C00EF8
:10446000032282401340C3405B181F49486B440736
:104470000868640FC869C50F486800268005C00F2A
:104480001A4A002803D01046002D0ED101E0304614
:104490000BE08869C00D0007000F00D110208D6966
:1044A000124F6D02AD0F7843E840082C10D2250062
:1044B0007D442D796D19AF440B0C03030B0B0508DC
:1044C000104606E00120C00303E07D20000200E06A
:1044D0003046096A052901D3400900E0C840F0BC14
:1044E000D8407047388008400080084000127A00A9
:1044F00004494A680123DB029A43C00202434A602E
:104500007047000000800840F0B4084F7D6AFE6AE2
:104510003C6B85438E439443002B02D005430E43EE
:1045200014437D62FE623C63F0BC7047008008402B
:1045300010B4054B9A6A07248440A24381400A4381
:104540009A6210BC704700000080084010B500213E
:10455000802001230A4607F081FE10BD10B50348F4
:1045600000F006F80149486710BD0000180B002054
:10457000F8B50446002601204003324607460123D1
:104580001146FFF7C1FF0E4D2846FFF7DFFF6E60B3
:10459000E62028600020215C2973211849782973BE
:1045A000801C7028F7DB2846AC68FFF7CFFF324647
:1045B000002311463846FFF7A7FF2046F8BD00004C
:1045C00000A0084038B51C4801691CA00AF09AFFF9
:1045D0006946022000F062F80106090E01D0254864
:1045E0000DE0254800990AF08DFF24480AF094FD5B
:1045F000022008F095F80106090E03D020480AF0C1
:1046000081FF0BE03D2149011E4805F049FE0028CD
:1046100001D01D4800E01D480AF07EFD1C48002422
:104620001C4A04700121117044700BF05FFB00F014
:10463000C9FC1948047038BDD00200202573E7B3C7
:10464000BBE7BB9FE6ADA3E59CA8E9AA8CE8AF81D8
:10465000E69687E4BBB6E5AE8CE695B4E680A72C7B
:10466000E8AFB7E7AD89E5BE852E2E2E2E2020209F
:1046700000000000E08E01002C8D0100D48C0100B0
:10468000908E0100702C0000788D0100D48F010005
:10469000280000200E01002010010020F3B50024A6
:1046A0008FB07A21069408940B9102281FD000281D
:1046B00000D008010D9001204003012322460990FB
:1046C0000899FFF721FF394D2846FFF73FFF6C603F
:1046D000E620286000273C4602AE102202A80D9971
:1046E00005F062FE002805D0012011B0F0BD304871
:1046F0000D90E0E7002102A8FFF79AFC002802D005
:10470000022011B0F0BDF3203901C000411A102978
:1047100047DC002947DB0FDDCA07D20F02D068460D
:10472000007A28738A4207DAB35C2B73B3185B787C
:104730002B73921C8A42F7DB102908DA6846042C96
:1047400005DA725C0255491C641C1029F7DB0D98D0
:104750007F1C10300D900B988742BEDB69460878AD
:10476000AE680202487889781043000201430802CB
:104770006946CC7804432846FFF7E8FE01210998F2
:10478000490308430023069A0899FFF7BDFEB44287
:1047900002D0032011B0F0BD10980660002011B0C7
:1047A000F0BD1021B8E70021C8E7000000A00840D4
:1047B000702C0000F0B5002783B001260446760374
:1047C000009701233A46394630460197FFF79CFE91
:1047D0001C4D2846FFF7BAFE6F60E62028600021D6
:1047E0002846625C0273621852780273891C282979
:1047F000F7DB8768FFF7AAFE304630430023019AB3
:104800000099FFF781FE042102A805F013FF00289C
:1048100011D16946087A0202487A897A1043000267
:1048200001430A026946C87A104347400648474098
:10483000A06AB84202D0002003B0F0BD012003B04E
:10484000F0BD000000A00840E3F86A3C020017D069
:104850000020115C552915D0522913D0542911D0AC
:1048600041290FD02D290DD00B46573B032B09D9D9
:104870003139082906D9115C002900D1481E70473A
:1048800000207047401C2028E3DB7047F0B5B7B02C
:104890000746014670221AA805F086FD002846D179
:1048A000052227A134A8FBF739FE00283FD1264D69
:1048B000002658207043C11958226846703105F00F
:1048C00073FD002833D11690179001204003002279
:1048D0006C46012311461890FFF716FE2846FFF795
:1048E00035FE00206860E620286000212846625CD2
:1048F0000273621852780273891C5829F7DB8468A6
:10490000FFF724FE0023179A16991898FFF7FCFD6D
:10491000B1001AA809188969A14208D16946097825
:10492000002900D0012180194078884202D000205F
:1049300037B0F0BD761C142EBBDB012037B0F0BDC4
:10494000444433350000000000A00840F0B58BB0AF
:10495000002504A802F080F801247F27089800268B
:104960006403BF02002837D065A272A100200AF0BC
:10497000C1FC354600960196264601232A46294663
:104980002046FFF7C1FD6D4C2046FFF7DFFD656057
:10499000E6202060002120467A1E0B68C3604B6829
:1049A000C36008319142F8DB8568FFF7CFFD3046E0
:1049B00030430023019A0099FFF7A6FD6048454067
:1049C0003868A84206D05F4A5AA103200AF092FC38
:1049D00009F038FA0BB0F0BD5B4A56A101200AF08D
:1049E00089FC0120FFF784FD0820FFF723FD012843
:1049F0000AD001200DF006FD6D1C322D35D00820A7
:104A0000FFF718FD0128F4D1009601233246314604
:104A100020460196FFF778FD484D2846FFF796FDA2
:104A20006E60E6202860494A002128460B68C36072
:104A30004B68C36008319142F8DB8668FFF786FD5A
:104A4000204620430023019A0099FFF75DFD3C4872
:104A50004640384601F0F6FF00280DD03CA235A1B3
:104A600002200AF047FC0BB0F0BD46A250A1022084
:104A70000AF040FC0BB0F0BD3146384602F03CF87D
:104A8000002806D04BA22BA102200AF033FC0BB069
:104A9000F0BD3868B04206D053A226A102200AF029
:104AA00029FC0BB0F0BD33465CA222A100200AF025
:104AB00021FC01200890022203A8D11E41608160E0
:104AC0000830521EFAD101F0AFFF04A801F0DEFF5A
:104AD000002806D05FA217A102200AF00BFC0BB041
:104AE000F0BD634A13A100200AF004FCBFF34F8F0E
:104AF00061496048C860BFF34F8F00BFFDE7000009
:104B0000436865636B696E67206669726D77617271
:104B10006520636F646520696E7465677269747976
:104B20002E2E2E20706C6561736520776169742E5E
:104B300000000000465753656300000000A00840D5
:104B4000DD531A355C9D0100189E0100FFFB01003A
:104B5000466C617368206572617365206661696C7B
:104B60006564207768656E2074727920746F207098
:104B7000726F6772616D20636865636B73756D2E0C
:104B8000000000004661696C656420746F20656EEA
:104B900061626C652048534920666F7220466C61E3
:104BA00073682050726F6772616D6D696E67210066
:104BB000464D4300466C6173682070726F67726186
:104BC0006D206661696C6564207768656E2074721B
:104BD0007920746F2070726F6772616D20636865F1
:104BE000636B73756D2E0000466C6173682076658B
:104BF00072696679206661696C6564207768656EA4
:104C00002074727920746F2070726F6772616D20EA
:104C1000636865636B73756D2E0000004669726D85
:104C200077617265207369676E617475726520685B
:104C30006173206265656E2070726F6772616D6D61
:104C400065642C76616C7565206973203078253039
:104C500038582E004F7074696F6E20627974652029
:104C600070726F6772616D206661696C65642E0099
:104C7000A89D01000400FA0500ED00E0002811D015
:104C800070B505460024285D002803D002F076FBAD
:104C9000002805D0641C1F2CF5DB0020C04370BD2C
:104CA000204670BD70470000F8B51C4D002410A2CE
:104CB000204629680AF01EFB0020194EFF2730709D
:104CC0002D370A200DF09EFB641CBC4206D115A2B4
:104CD000032029680AF00EFB09F0B4F830780028A8
:104CE000EFD01BA2002029680AF004FBF8BD0000E9
:104CF000436865636B696E672053797374656D20D3
:104D00006865617274626561742074696D65722092
:104D100073746174752E2E2E000000000C000020AC
:104D20000000002053797374656D2038487A20683C
:104D300065617274626561742074696D6572206466
:104D40006964206E6F742073746172742E000000A9
:104D500053797374656D20686561727462656174FE
:104D60002074696D657220697320776F726B696E4C
:104D7000672E00000021002806D00278002A09D002
:104D8000425C303A0A2A01D301207047491C425C38
:104D9000002AF5D100207047F3B583B00D0044D050
:104DA0000398002841DD0024401E0190844201DA6E
:104DB000601C01E00398401E0146002C01DD601ECE
:104DC00000E000200746880000902958A600A85956
:104DD00012F00CFE02D10198844223DBBF00A959D6
:104DE000E85912F003FE01D1002C1BDCA959E85947
:104DF00012F0A8FE05D200982958A85912F020FEFA
:104E000010D3A959E85912F01BFE05D20098295871
:104E1000A85912F097FE05D30398641C844201DA66
:104E20000198C3E70398844202DA002005B0F0BD80
:104E3000012005B0F0BD0000F1B5009800282CD08D
:104E4000FBF74AFB164D06460024A700E859FBF77E
:104E500043FBB0421ED1E8590099FBF79BFC0028A8
:104E600018D1072C16D22000784400790018874406
:104E7000030507090B0D0F000020F8BD0120F8BD48
:104E80000220F8BD0320F8BD0420F8BD0520F8BDC0
:104E90000620F8BD641C072CD7DB0720F8BD0000F6
:104EA00070010020F1B50098002819D0FBF714FB21
:104EB0000F4D06460024A700E859FBF70DFBB04252
:104EC0000BD1E8590099FBF765FC002805D1002CAF
:104ED00008D0012C08D0022C08D0641C032CEADB7B
:104EE0000320F8BD0020F8BD0120F8BD0220F8BD68
:104EF000A8010020002821D070B50546FBF7ECFA88
:104F00000F4E04463068FBF7E7FAA04205D1294668
:104F10003068FBF73FFC00280CD07068FBF7DCFA28
:104F2000A04205D129467068FBF734FC002803D065
:104F3000002070BD012070BD022070BD70470000D0
:104F400038010020002801D10220704710B5044626
:104F5000052208A1FBF7A9FA002807D0062207A11D
:104F60002046FBF7A2FA002801D0022010BD012044
:104F700010BD0000547275650000000046616C733E
:104F800065000000F0B400234C1E002C13DD012648
:104F9000421ECD07F607F54201D05378521C5678D1
:104FA0000025641006D097789B19D678ED19921CCD
:104FB000641EF8D15B19491E01D4405CC318F0BCD3
:104FC000D8B270470C4B00229A5E0020002A0DDDFB
:104FD0000A49D20701D04870491C00229A5E52103B
:104FE00004D048708870891C521EFAD10449088088
:104FF0000449188008707047240100204F0F0020DA
:10500000260100201F010020F0B56B4C9BB0617998
:105010002079814206D0607100287DD106F0F8FF2A
:10502000FFF7D0FF65480078052875D12079002862
:1050300009D00020199006F0E9FEA078012826D0BA
:1050400000280BD023E000F0CFFA5DA00AF064F84E
:1050500014225C4904A809F06DFAEBE7A068032666
:10506000002813D0FBF738FA00280FD05548FBF77B
:1050700033FA0546A068FBF72FFAA84206D1802232
:105080005048A168FBF74AFA00282AD0A6704A487F
:105090000079002865D11998002870DD0024049853
:1050A000FBF71AFA484D0126009024206043471967
:1050B0007868FBF711FA00990246914205D10499EC
:1050C0007868FBF72BFA002803D0641C761C1C2E92
:1050D000EBDD1C2C59DA00202422544301466219CE
:1050E00005E00220A070D2E7401C042802DA135C1D
:1050F000032BF9D1002853DD0123012808DB2E4CB6
:10510000E478555CA54203D0491C5B1C8342F8DD62
:10511000814228DA202000E023E0805C012802D1CF
:10512000264800210170244C107E207160712748B0
:1051300004ABC11A002901DD142905DB50221946F0
:105140002248FBF77CFA0AE000218A009D5885502E
:10515000D51812186D68891C55601429F5DB19984B
:10516000E0601BB0F0BD1AA009F0D6FF24A009F042
:10517000D3FF049809F0D0FF22A009F0CDFFFFF77C
:1051800021FF06F045FF1BB0F0BD22A009F0C4FFCF
:105190001BA009F0C1FF049809F0BEFF2248ECE70C
:1051A0008142B5DA044BDB78545C9C42B0D0491C98
:1051B0008142F9DBACE700000C0100201F01002058
:1051C0000D0A0000500F00203C820100000C00205E
:1051D0000D0A0D0A1B5B34303B33316DE5AFB9E48A
:1051E000B88DE8B5B7EFBC8CE682A8E6B2A1E69C24
:1051F00089E69D83E99990E4BDBFE794A80000008B
:105200002200000022E591BDE4BBA4E380821B5B89
:10521000306D00000D0A0D0A1B5B34303B33316DDD
:10522000E591BDE4BBA420005CA70100F0B50C46ED
:105230009DB001460DA820220230FBF775FA5648B2
:10524000027808A90A71427869460A70027B08A9A7
:105250004A7201690B9141690122D205914201DB39
:10526000416900E00021416142694C498A4200DC09
:105270004169416140690C90494808A98278CA7126
:1052800002784A714078887116A8FEF721FD4549D9
:105290000025002825D01798069018A8007B002824
:1052A00027D00A460492169A059218AA527B002A21
:1052B00021D00B46079308AB5A75187501263A4F53
:1052C000002C08A83BD00672A0680290E06803900A
:1052D000606801903969606812F034FC0DD20120D9
:1052E0000CE006910491059108A807914575057594
:1052F000E4E7199AD6E71A9BDCE7002008A9887032
:10530000F968606812F09CFB01D2012000E00020E7
:1053100008A94870B968606812F092FB01D20120B8
:1053200000E0002008A908707969A06812F00AFC62
:1053300001D8012000E0002008A9C87004E005722F
:1053400003910291089501918421042003F08EF8C5
:105350001648174C0570217816480E5468460CF014
:10536000D7F821786B4689000919886120780028D0
:105370000ADB132808DC58214843FB2109014118A6
:105380005822184605F076F820781421401CFBF7C7
:1053900051FA21701DB0F0BD001200200000C8427B
:1053A000710200200000C07F6C0A00201500002060
:1053B000840A0020850A002010B5394C2078002886
:1053C00017D01D2867D201007944097949188F4404
:1053D00062200E1117141A1D2326292C2F3235385E
:1053E0003B3E4144474A4D505356595C5F0004F0E0
:1053F000DFFC10BD04F008FE10BD0CF073F910BD09
:1054000011F092FE10BD0CF055FE10BD12F0B8F870
:1054100010BD02F051FA10BD0FF016F810BD11F0DA
:10542000D9F910BD07F0BEF910BD03F0CDF810BDDD
:105430000DF076FE10BD0DF013FE10BD10F0FAFC5D
:1054400010BD10F0BDFB10BD0DF074FD10BD05F0DA
:105450009BF910BD0EF00EFC10BD0EF0BBFE10BD92
:1054600011F0EEF810BD0FF099FD10BD0BF0D0FE5D
:1054700010BD11F0F9FA10BD0FF08EF810BD0BF051
:10548000D1FA10BD0CF070FE10BD0FF0A9F910BDDF
:105490000DF0ACF810BDFFF795FD0020207010BD99
:1054A00010010020F8B5204C0120205600251F4E89
:1054B0001F4F00281DD01BDD401E60701D4812F0DC
:1054C00025F801467F2009F0D7FD3580FFF77AFDEA
:1054D000012020561849C001411880221548FBF7C9
:1054E00023F91448FAF7F8FF3880124809F014FE3F
:1054F000F8BD0020C04360700E4812F007F8014666
:105500007F2009F0B9FD3580FFF75CFD80220B4953
:105510000848FBF709F90748FAF7DEFF3880054825
:1055200009F0FAFDF8BD00001C0100202601002052
:1055300024010020500F0020500C0020D00E00202D
:10554000F8B5234C012020560025411C214E224F46
:10555000002920D02178491E88421BDA401C607047
:105560001E4811F0D3FF01467F2009F085FD3580EC
:10557000FFF728FD012020561949C001411880225B
:105580001648FBF7D1F81548FAF7A6FF38801348FC
:1055900009F0C2FDF8BD6570802210491148FBF783
:1055A000C3F80E4811F0B2FF01467F2009F064FDF8
:1055B0003580FFF707FD802209490848FBF7B4F85A
:1055C0000648FAF789FF3880044809F0A5FDF8BDC0
:1055D0001C0100202601002024010020500F002083
:1055E000500C0020D00E002070B50D4D0424E001B9
:1055F0004019014680398022FAF7E0FF641E002C32
:10560000F5DC802207490648FAF7D8FF06490878F2
:10561000052801D2401C08700020C043487070BDAE
:10562000500C0020500F00201C010020F0B501227A
:1056300095B008211046FEF77FFD4F4C012208214E
:10564000204601F059FD0821204601F0B3FD062255
:1056500010210020FEF770FD062220210020FEF719
:105660006BFD00222021454801F08EFDE1267602E7
:105670000024684604964483FF210483013181821B
:105680003F4FC48204A9384609F0E8FD01224021B9
:10569000384609F011FE01228021384609F00CFE3F
:1056A00000221146384609F00FFE0022012138463B
:1056B00009F00AFE19230294DB016846039486214F
:1056C000C3810181012585722E4AC472032109021A
:1056D0000192818169460220009705F0E9FD0121D0
:1056E000022005F0FBFD00F0C9F901220021384637
:1056F00009F0F5FD01221146384609F0F0FD224877
:105700004470857003F0A2F9204809F005FD0122DC
:10571000062311461E48009609F0F4FE1D4E302265
:1057200034701D4908A8FAF749FF002108A8FEF7C0
:105730007FFC00210CA8FEF77BFC002110A8FEF7DF
:1057400077FC08A809F0E8FC089409940A940B94E3
:105750000C940D940E940F9410941194129413942D
:1057600035700EA009F0D8FC134809F0D5FC0AF0FA
:10577000BDFA15B0F0BD000000200B4000000B404A
:1057800000000440D70F00201E01002008AC0100DB
:10579000C4AB0100140000202C8601002020204111
:1057A0006C6C2072696768747320726573657276B9
:1057B00065642E0D0A00000080AB010010B584B0B6
:1057C0000D4809F0A9FC0D4C0D48A16C09F09AFE9A
:1057D00006F01EFCA06C0090002069464881FF2264
:1057E000088101328A80C880064809F037FD0649E1
:1057F0000120086004B010BD50AC0100EC02002094
:10580000A4AC0100000004404C00002070B5134D12
:105810002878032821D1124C124922790020242310
:1058200043435B181B7E934207D124225043401808
:10583000C069002804D0804702E0401C1C28EEDB31
:1058400000262E70FFF7BEFB07A009F065FC20794B
:10585000002801D106F0DCFB267170BD1F0100207D
:105860000C0100203C8201000D0A5E430000000094
:10587000F8B5684C0220205E002801DD401E83E060
:1058800001F0FEFC050050D06348006863490968D8
:105890004840FBF7CFFF634F06466149386812F076
:1058A000F9F8314612F05CF8FBF780FF5E49096FAA
:1058B0004840FAF789FD6078002629182031097CD4
:1058C000392975D00DDC2D390C296CD208007844AB
:1058D0000079001887447F7D7D7D5A5C5E6062643C
:1058E000686A572916D008DC412963D0522963D051
:1058F000542909D055296CD137E058291AD0592993
:105900001FD05A2965D126E0217800290ED02670B3
:10591000401C6070C0B2401C60700021C943686FB9
:10592000FBF78CFFFBF71CFF6080F8BD01202070A7
:105930006670F8BD401C6070686FFBF711FF6080F7
:10594000F8BD401C60700121686FFBF777FFFBF723
:1059500007FF6080F8BD401C60700221686FFBF794
:105960006DFFFBF7FDFE6080F8BD401C6070FAF72C
:10597000C9FC1D21FAF76CFF481CFBF753FF696F48
:1059800012F088F8FBF7ECFE6080F8BD274828E0AD
:10599000274826E0274824E0274822E0274820E03F
:1059A00027481EE004E014E026481AE0264818E0E4
:1059B000264816E0264814E0FAF7A4FC5A21FAF724
:1059C00047FF08460A30FBF72DFF8121C905C84271
:1059D00003D16670F8BD002005E00121C9058842A9
:1059E00001DB012100E000211A4A91701849FBF700
:1059F00007FEFBF7DBFD184A184B0FF0B7FBFBF770
:105A000011F8296D12F046F838606078401C60701B
:105A1000F8BD0000C802002080C0024080E00640BF
:105A20000000FA43B4020020180B002000002041BF
:105A30000000A0410000F041000020420000484268
:105A40000000704200008C420000A0420000B442FE
:105A50000000C842001200209A9999999999034030
:105A600010B5054C2078022805D1FFF7ABFA06F0F7
:105A7000CFFA0020207010BD1F01002010B50122B8
:105A80000921032005F052FC0120C00703490860EA
:105A90000021034841608160017010BD00E100E019
:105AA000280100200B4802780B48002A016D0B48A2
:105AB0000AD100290AD04168002906DD0278002AAF
:105AC00003D000220270491E416070470021C94383
:105AD000FAE700000F010020EC0200200401002082
